{
	"contracts/V2GLoadManagement.sol": {
		"V2GLoadManagement": {
			"abi": [
				{
					"inputs": [
						{
							"internalType": "uint256",
							"name": "_basePrice",
							"type": "uint256"
						},
						{
							"internalType": "uint256",
							"name": "_maxDemand",
							"type": "uint256"
						}
					],
					"stateMutability": "nonpayable",
					"type": "constructor"
				},
				{
					"anonymous": false,
					"inputs": [
						{
							"indexed": true,
							"internalType": "address",
							"name": "evOwner",
							"type": "address"
						},
						{
							"indexed": false,
							"internalType": "uint256",
							"name": "energyAmount",
							"type": "uint256"
						}
					],
					"name": "EnergyTransferInitiated",
					"type": "event"
				},
				{
					"anonymous": false,
					"inputs": [
						{
							"indexed": false,
							"internalType": "uint256",
							"name": "newDemand",
							"type": "uint256"
						}
					],
					"name": "LoadAdjusted",
					"type": "event"
				},
				{
					"anonymous": false,
					"inputs": [
						{
							"indexed": true,
							"internalType": "address",
							"name": "evOwner",
							"type": "address"
						},
						{
							"indexed": false,
							"internalType": "uint256",
							"name": "amountPaid",
							"type": "uint256"
						}
					],
					"name": "PaymentSettled",
					"type": "event"
				},
				{
					"anonymous": false,
					"inputs": [],
					"name": "ShutdownInitiated",
					"type": "event"
				},
				{
					"inputs": [
						{
							"internalType": "address",
							"name": "",
							"type": "address"
						}
					],
					"name": "balances",
					"outputs": [
						{
							"internalType": "uint256",
							"name": "",
							"type": "uint256"
						}
					],
					"stateMutability": "view",
					"type": "function"
				},
				{
					"inputs": [],
					"name": "basePrice",
					"outputs": [
						{
							"internalType": "uint256",
							"name": "",
							"type": "uint256"
						}
					],
					"stateMutability": "view",
					"type": "function"
				},
				{
					"inputs": [],
					"name": "currentDemand",
					"outputs": [
						{
							"internalType": "uint256",
							"name": "",
							"type": "uint256"
						}
					],
					"stateMutability": "view",
					"type": "function"
				},
				{
					"inputs": [],
					"name": "depositFunds",
					"outputs": [],
					"stateMutability": "payable",
					"type": "function"
				},
				{
					"inputs": [],
					"name": "emergencyShutdown",
					"outputs": [],
					"stateMutability": "nonpayable",
					"type": "function"
				},
				{
					"inputs": [],
					"name": "gridOperator",
					"outputs": [
						{
							"internalType": "address",
							"name": "",
							"type": "address"
						}
					],
					"stateMutability": "view",
					"type": "function"
				},
				{
					"inputs": [
						{
							"internalType": "uint256",
							"name": "energyAmount",
							"type": "uint256"
						}
					],
					"name": "initiateTransfer",
					"outputs": [],
					"stateMutability": "nonpayable",
					"type": "function"
				},
				{
					"inputs": [],
					"name": "isOperational",
					"outputs": [
						{
							"internalType": "bool",
							"name": "",
							"type": "bool"
						}
					],
					"stateMutability": "view",
					"type": "function"
				},
				{
					"inputs": [],
					"name": "maxDemand",
					"outputs": [
						{
							"internalType": "uint256",
							"name": "",
							"type": "uint256"
						}
					],
					"stateMutability": "view",
					"type": "function"
				},
				{
					"inputs": [],
					"name": "resumeOperations",
					"outputs": [],
					"stateMutability": "nonpayable",
					"type": "function"
				},
				{
					"inputs": [
						{
							"internalType": "uint256",
							"name": "amount",
							"type": "uint256"
						}
					],
					"name": "withdrawFunds",
					"outputs": [],
					"stateMutability": "nonpayable",
					"type": "function"
				}
			],
			"devdoc": {
				"kind": "dev",
				"methods": {},
				"version": 1
			},
			"evm": {
				"assembly": "    /* \"contracts/V2GLoadManagement.sol\":60:3198  contract V2GLoadManagement {\r... */\n  mstore(0x40, 0x80)\n    /* \"contracts/V2GLoadManagement.sol\":859:1292  constructor(uint256 _basePrice, uint256 _maxDemand) {\r... */\n  callvalue\n  dup1\n  iszero\n  tag_1\n  jumpi\n  0x00\n  dup1\n  revert\ntag_1:\n  pop\n  mload(0x40)\n  sub(codesize, bytecodeSize)\n  dup1\n  bytecodeSize\n  dup4\n  codecopy\n  dup2\n  dup2\n  add\n  0x40\n  mstore\n  dup2\n  add\n  swap1\n  tag_2\n  swap2\n  swap1\n  tag_3\n  jump\t// in\ntag_2:\n    /* \"contracts/V2GLoadManagement.sol\":937:947  msg.sender */\n  caller\n    /* \"contracts/V2GLoadManagement.sol\":922:934  gridOperator */\n  0x00\n  dup1\n    /* \"contracts/V2GLoadManagement.sol\":922:947  gridOperator = msg.sender */\n  0x0100\n  exp\n  dup2\n  sload\n  dup2\n  0xffffffffffffffffffffffffffffffffffffffff\n  mul\n  not\n  and\n  swap1\n  dup4\n  0xffffffffffffffffffffffffffffffffffffffff\n  and\n  mul\n  or\n  swap1\n  sstore\n  pop\n    /* \"contracts/V2GLoadManagement.sol\":1027:1031  true */\n  0x01\n    /* \"contracts/V2GLoadManagement.sol\":1011:1024  isOperational */\n  0x00\n  0x14\n    /* \"contracts/V2GLoadManagement.sol\":1011:1031  isOperational = true */\n  0x0100\n  exp\n  dup2\n  sload\n  dup2\n  0xff\n  mul\n  not\n  and\n  swap1\n  dup4\n  iszero\n  iszero\n  mul\n  or\n  swap1\n  sstore\n  pop\n    /* \"contracts/V2GLoadManagement.sol\":1099:1109  _basePrice */\n  dup2\n    /* \"contracts/V2GLoadManagement.sol\":1087:1096  basePrice */\n  0x01\n    /* \"contracts/V2GLoadManagement.sol\":1087:1109  basePrice = _basePrice */\n  dup2\n  swap1\n  sstore\n  pop\n    /* \"contracts/V2GLoadManagement.sol\":1157:1167  _maxDemand */\n  dup1\n    /* \"contracts/V2GLoadManagement.sol\":1145:1154  maxDemand */\n  0x02\n    /* \"contracts/V2GLoadManagement.sol\":1145:1167  maxDemand = _maxDemand */\n  dup2\n  swap1\n  sstore\n  pop\n    /* \"contracts/V2GLoadManagement.sol\":1233:1243  _maxDemand */\n  dup1\n    /* \"contracts/V2GLoadManagement.sol\":1217:1230  currentDemand */\n  0x03\n    /* \"contracts/V2GLoadManagement.sol\":1217:1243  currentDemand = _maxDemand */\n  dup2\n  swap1\n  sstore\n  pop\n    /* \"contracts/V2GLoadManagement.sol\":859:1292  constructor(uint256 _basePrice, uint256 _maxDemand) {\r... */\n  pop\n  pop\n    /* \"contracts/V2GLoadManagement.sol\":60:3198  contract V2GLoadManagement {\r... */\n  jump(tag_6)\n    /* \"#utility.yul\":7:150   */\ntag_8:\n  0x00\n    /* \"#utility.yul\":95:101   */\n  dup2\n    /* \"#utility.yul\":89:102   */\n  mload\n    /* \"#utility.yul\":80:102   */\n  swap1\n  pop\n    /* \"#utility.yul\":111:144   */\n  tag_10\n    /* \"#utility.yul\":138:143   */\n  dup2\n    /* \"#utility.yul\":111:144   */\n  tag_11\n  jump\t// in\ntag_10:\n    /* \"#utility.yul\":70:150   */\n  swap3\n  swap2\n  pop\n  pop\n  jump\t// out\n    /* \"#utility.yul\":156:596   */\ntag_3:\n  0x00\n  dup1\n    /* \"#utility.yul\":292:294   */\n  0x40\n    /* \"#utility.yul\":280:289   */\n  dup4\n    /* \"#utility.yul\":271:278   */\n  dup6\n    /* \"#utility.yul\":267:290   */\n  sub\n    /* \"#utility.yul\":263:295   */\n  slt\n    /* \"#utility.yul\":260:262   */\n  iszero\n  tag_13\n  jumpi\n    /* \"#utility.yul\":308:309   */\n  0x00\n    /* \"#utility.yul\":305:306   */\n  dup1\n    /* \"#utility.yul\":298:310   */\n  revert\n    /* \"#utility.yul\":260:262   */\ntag_13:\n    /* \"#utility.yul\":351:352   */\n  0x00\n    /* \"#utility.yul\":376:440   */\n  tag_14\n    /* \"#utility.yul\":432:439   */\n  dup6\n    /* \"#utility.yul\":423:429   */\n  dup3\n    /* \"#utility.yul\":412:421   */\n  dup7\n    /* \"#utility.yul\":408:430   */\n  add\n    /* \"#utility.yul\":376:440   */\n  tag_8\n  jump\t// in\ntag_14:\n    /* \"#utility.yul\":366:440   */\n  swap3\n  pop\n    /* \"#utility.yul\":322:450   */\n  pop\n    /* \"#utility.yul\":489:491   */\n  0x20\n    /* \"#utility.yul\":515:579   */\n  tag_15\n    /* \"#utility.yul\":571:578   */\n  dup6\n    /* \"#utility.yul\":562:568   */\n  dup3\n    /* \"#utility.yul\":551:560   */\n  dup7\n    /* \"#utility.yul\":547:569   */\n  add\n    /* \"#utility.yul\":515:579   */\n  tag_8\n  jump\t// in\ntag_15:\n    /* \"#utility.yul\":505:579   */\n  swap2\n  pop\n    /* \"#utility.yul\":460:589   */\n  pop\n    /* \"#utility.yul\":250:596   */\n  swap3\n  pop\n  swap3\n  swap1\n  pop\n  jump\t// out\n    /* \"#utility.yul\":602:679   */\ntag_16:\n  0x00\n    /* \"#utility.yul\":668:673   */\n  dup2\n    /* \"#utility.yul\":657:673   */\n  swap1\n  pop\n    /* \"#utility.yul\":647:679   */\n  swap2\n  swap1\n  pop\n  jump\t// out\n    /* \"#utility.yul\":685:807   */\ntag_11:\n    /* \"#utility.yul\":758:782   */\n  tag_19\n    /* \"#utility.yul\":776:781   */\n  dup2\n    /* \"#utility.yul\":758:782   */\n  tag_16\n  jump\t// in\ntag_19:\n    /* \"#utility.yul\":751:756   */\n  dup2\n    /* \"#utility.yul\":748:783   */\n  eq\n    /* \"#utility.yul\":738:740   */\n  tag_20\n  jumpi\n    /* \"#utility.yul\":797:798   */\n  0x00\n    /* \"#utility.yul\":794:795   */\n  dup1\n    /* \"#utility.yul\":787:799   */\n  revert\n    /* \"#utility.yul\":738:740   */\ntag_20:\n    /* \"#utility.yul\":728:807   */\n  pop\n  jump\t// out\n    /* \"contracts/V2GLoadManagement.sol\":60:3198  contract V2GLoadManagement {\r... */\ntag_6:\n  dataSize(sub_0)\n  dup1\n  dataOffset(sub_0)\n  0x00\n  codecopy\n  0x00\n  return\nstop\n\nsub_0: assembly {\n        /* \"contracts/V2GLoadManagement.sol\":60:3198  contract V2GLoadManagement {\r... */\n      mstore(0x40, 0x80)\n      jumpi(tag_1, lt(calldatasize, 0x04))\n      shr(0xe0, calldataload(0x00))\n      dup1\n      0x61a31e00\n      gt\n      tag_13\n      jumpi\n      dup1\n      0x61a31e00\n      eq\n      tag_7\n      jumpi\n      dup1\n      0x9e6e2e55\n      eq\n      tag_8\n      jumpi\n      dup1\n      0xa6e1d016\n      eq\n      tag_9\n      jumpi\n      dup1\n      0xc7876ea4\n      eq\n      tag_10\n      jumpi\n      dup1\n      0xcd905dff\n      eq\n      tag_11\n      jumpi\n      dup1\n      0xe2c41dbc\n      eq\n      tag_12\n      jumpi\n      jump(tag_1)\n    tag_13:\n      dup1\n      0x155dd5ee\n      eq\n      tag_2\n      jumpi\n      dup1\n      0x27e235e3\n      eq\n      tag_3\n      jumpi\n      dup1\n      0x3403c2fc\n      eq\n      tag_4\n      jumpi\n      dup1\n      0x3defde13\n      eq\n      tag_5\n      jumpi\n      dup1\n      0x4b62811b\n      eq\n      tag_6\n      jumpi\n    tag_1:\n      0x00\n      dup1\n      revert\n        /* \"contracts/V2GLoadManagement.sol\":2823:3030  function withdrawFunds(uint256 amount) public onlyGridOperator {\r... */\n    tag_2:\n      callvalue\n      dup1\n      iszero\n      tag_14\n      jumpi\n      0x00\n      dup1\n      revert\n    tag_14:\n      pop\n      tag_15\n      0x04\n      dup1\n      calldatasize\n      sub\n      dup2\n      add\n      swap1\n      tag_16\n      swap2\n      swap1\n      tag_17\n      jump\t// in\n    tag_16:\n      tag_18\n      jump\t// in\n    tag_15:\n      stop\n        /* \"contracts/V2GLoadManagement.sol\":482:525  mapping(address => uint256) public balances */\n    tag_3:\n      callvalue\n      dup1\n      iszero\n      tag_19\n      jumpi\n      0x00\n      dup1\n      revert\n    tag_19:\n      pop\n      tag_20\n      0x04\n      dup1\n      calldatasize\n      sub\n      dup2\n      add\n      swap1\n      tag_21\n      swap2\n      swap1\n      tag_22\n      jump\t// in\n    tag_21:\n      tag_23\n      jump\t// in\n    tag_20:\n      mload(0x40)\n      tag_24\n      swap2\n      swap1\n      tag_25\n      jump\t// in\n    tag_24:\n      mload(0x40)\n      dup1\n      swap2\n      sub\n      swap1\n      return\n        /* \"contracts/V2GLoadManagement.sol\":2444:2572  function emergencyShutdown() public onlyGridOperator {\r... */\n    tag_4:\n      callvalue\n      dup1\n      iszero\n      tag_26\n      jumpi\n      0x00\n      dup1\n      revert\n    tag_26:\n      pop\n      tag_27\n      tag_28\n      jump\t// in\n    tag_27:\n      stop\n        /* \"contracts/V2GLoadManagement.sol\":351:375  uint256 public maxDemand */\n    tag_5:\n      callvalue\n      dup1\n      iszero\n      tag_29\n      jumpi\n      0x00\n      dup1\n      revert\n    tag_29:\n      pop\n      tag_30\n      tag_31\n      jump\t// in\n    tag_30:\n      mload(0x40)\n      tag_32\n      swap2\n      swap1\n      tag_25\n      jump\t// in\n    tag_32:\n      mload(0x40)\n      dup1\n      swap2\n      sub\n      swap1\n      return\n        /* \"contracts/V2GLoadManagement.sol\":118:145  address public gridOperator */\n    tag_6:\n      callvalue\n      dup1\n      iszero\n      tag_33\n      jumpi\n      0x00\n      dup1\n      revert\n    tag_33:\n      pop\n      tag_34\n      tag_35\n      jump\t// in\n    tag_34:\n      mload(0x40)\n      tag_36\n      swap2\n      swap1\n      tag_37\n      jump\t// in\n    tag_36:\n      mload(0x40)\n      dup1\n      swap2\n      sub\n      swap1\n      return\n        /* \"contracts/V2GLoadManagement.sol\":1725:2385  function initiateTransfer(uint256 energyAmount) public operational {\r... */\n    tag_7:\n      callvalue\n      dup1\n      iszero\n      tag_38\n      jumpi\n      0x00\n      dup1\n      revert\n    tag_38:\n      pop\n      tag_39\n      0x04\n      dup1\n      calldatasize\n      sub\n      dup2\n      add\n      swap1\n      tag_40\n      swap2\n      swap1\n      tag_17\n      jump\t// in\n    tag_40:\n      tag_41\n      jump\t// in\n    tag_39:\n      stop\n        /* \"contracts/V2GLoadManagement.sol\":415:443  uint256 public currentDemand */\n    tag_8:\n      callvalue\n      dup1\n      iszero\n      tag_42\n      jumpi\n      0x00\n      dup1\n      revert\n    tag_42:\n      pop\n      tag_43\n      tag_44\n      jump\t// in\n    tag_43:\n      mload(0x40)\n      tag_45\n      swap2\n      swap1\n      tag_25\n      jump\t// in\n    tag_45:\n      mload(0x40)\n      dup1\n      swap2\n      sub\n      swap1\n      return\n        /* \"contracts/V2GLoadManagement.sol\":3104:3195  function resumeOperations() public onlyGridOperator {\r... */\n    tag_9:\n      callvalue\n      dup1\n      iszero\n      tag_46\n      jumpi\n      0x00\n      dup1\n      revert\n    tag_46:\n      pop\n      tag_47\n      tag_48\n      jump\t// in\n    tag_47:\n      stop\n        /* \"contracts/V2GLoadManagement.sol\":286:310  uint256 public basePrice */\n    tag_10:\n      callvalue\n      dup1\n      iszero\n      tag_49\n      jumpi\n      0x00\n      dup1\n      revert\n    tag_49:\n      pop\n      tag_50\n      tag_51\n      jump\t// in\n    tag_50:\n      mload(0x40)\n      tag_52\n      swap2\n      swap1\n      tag_25\n      jump\t// in\n    tag_52:\n      mload(0x40)\n      dup1\n      swap2\n      sub\n      swap1\n      return\n        /* \"contracts/V2GLoadManagement.sol\":208:233  bool public isOperational */\n    tag_11:\n      callvalue\n      dup1\n      iszero\n      tag_53\n      jumpi\n      0x00\n      dup1\n      revert\n    tag_53:\n      pop\n      tag_54\n      tag_55\n      jump\t// in\n    tag_54:\n      mload(0x40)\n      tag_56\n      swap2\n      swap1\n      tag_57\n      jump\t// in\n    tag_56:\n      mload(0x40)\n      dup1\n      swap2\n      sub\n      swap1\n      return\n        /* \"contracts/V2GLoadManagement.sol\":2632:2762  function depositFunds() public payable onlyGridOperator {\r... */\n    tag_12:\n      tag_58\n      tag_59\n      jump\t// in\n    tag_58:\n      stop\n        /* \"contracts/V2GLoadManagement.sol\":2823:3030  function withdrawFunds(uint256 amount) public onlyGridOperator {\r... */\n    tag_18:\n        /* \"contracts/V2GLoadManagement.sol\":1418:1430  gridOperator */\n      0x00\n      dup1\n      sload\n      swap1\n      0x0100\n      exp\n      swap1\n      div\n      0xffffffffffffffffffffffffffffffffffffffff\n      and\n        /* \"contracts/V2GLoadManagement.sol\":1404:1430  msg.sender == gridOperator */\n      0xffffffffffffffffffffffffffffffffffffffff\n      and\n        /* \"contracts/V2GLoadManagement.sol\":1404:1414  msg.sender */\n      caller\n        /* \"contracts/V2GLoadManagement.sol\":1404:1430  msg.sender == gridOperator */\n      0xffffffffffffffffffffffffffffffffffffffff\n      and\n      eq\n        /* \"contracts/V2GLoadManagement.sol\":1396:1466  require(msg.sender == gridOperator, \"Caller is not the grid operator\") */\n      tag_61\n      jumpi\n      mload(0x40)\n      0x08c379a000000000000000000000000000000000000000000000000000000000\n      dup2\n      mstore\n      0x04\n      add\n      tag_62\n      swap1\n      tag_63\n      jump\t// in\n    tag_62:\n      mload(0x40)\n      dup1\n      swap2\n      sub\n      swap1\n      revert\n    tag_61:\n        /* \"contracts/V2GLoadManagement.sol\":2915:2936  address(this).balance */\n      selfbalance\n        /* \"contracts/V2GLoadManagement.sol\":2905:2911  amount */\n      dup2\n        /* \"contracts/V2GLoadManagement.sol\":2905:2936  amount <= address(this).balance */\n      gt\n      iszero\n        /* \"contracts/V2GLoadManagement.sol\":2897:2973  require(amount <= address(this).balance, \"Insufficient balance in contract\") */\n      tag_65\n      jumpi\n      mload(0x40)\n      0x08c379a000000000000000000000000000000000000000000000000000000000\n      dup2\n      mstore\n      0x04\n      add\n      tag_66\n      swap1\n      tag_67\n      jump\t// in\n    tag_66:\n      mload(0x40)\n      dup1\n      swap2\n      sub\n      swap1\n      revert\n    tag_65:\n        /* \"contracts/V2GLoadManagement.sol\":2992:3004  gridOperator */\n      0x00\n      dup1\n      sload\n      swap1\n      0x0100\n      exp\n      swap1\n      div\n      0xffffffffffffffffffffffffffffffffffffffff\n      and\n        /* \"contracts/V2GLoadManagement.sol\":2984:3014  payable(gridOperator).transfer */\n      0xffffffffffffffffffffffffffffffffffffffff\n      and\n        /* \"contracts/V2GLoadManagement.sol\":2984:3022  payable(gridOperator).transfer(amount) */\n      0x08fc\n        /* \"contracts/V2GLoadManagement.sol\":3015:3021  amount */\n      dup3\n        /* \"contracts/V2GLoadManagement.sol\":2984:3022  payable(gridOperator).transfer(amount) */\n      swap1\n      dup2\n      iszero\n      mul\n      swap1\n      mload(0x40)\n      0x00\n      mload(0x40)\n      dup1\n      dup4\n      sub\n      dup2\n      dup6\n      dup9\n      dup9\n      call\n      swap4\n      pop\n      pop\n      pop\n      pop\n      iszero\n      dup1\n      iszero\n      tag_69\n      jumpi\n      returndatasize\n      0x00\n      dup1\n      returndatacopy\n      revert(0x00, returndatasize)\n    tag_69:\n      pop\n        /* \"contracts/V2GLoadManagement.sol\":2823:3030  function withdrawFunds(uint256 amount) public onlyGridOperator {\r... */\n      pop\n      jump\t// out\n        /* \"contracts/V2GLoadManagement.sol\":482:525  mapping(address => uint256) public balances */\n    tag_23:\n      mstore(0x20, 0x04)\n      dup1\n      0x00\n      mstore\n      keccak256(0x00, 0x40)\n      0x00\n      swap2\n      pop\n      swap1\n      pop\n      sload\n      dup2\n      jump\t// out\n        /* \"contracts/V2GLoadManagement.sol\":2444:2572  function emergencyShutdown() public onlyGridOperator {\r... */\n    tag_28:\n        /* \"contracts/V2GLoadManagement.sol\":1418:1430  gridOperator */\n      0x00\n      dup1\n      sload\n      swap1\n      0x0100\n      exp\n      swap1\n      div\n      0xffffffffffffffffffffffffffffffffffffffff\n      and\n        /* \"contracts/V2GLoadManagement.sol\":1404:1430  msg.sender == gridOperator */\n      0xffffffffffffffffffffffffffffffffffffffff\n      and\n        /* \"contracts/V2GLoadManagement.sol\":1404:1414  msg.sender */\n      caller\n        /* \"contracts/V2GLoadManagement.sol\":1404:1430  msg.sender == gridOperator */\n      0xffffffffffffffffffffffffffffffffffffffff\n      and\n      eq\n        /* \"contracts/V2GLoadManagement.sol\":1396:1466  require(msg.sender == gridOperator, \"Caller is not the grid operator\") */\n      tag_71\n      jumpi\n      mload(0x40)\n      0x08c379a000000000000000000000000000000000000000000000000000000000\n      dup2\n      mstore\n      0x04\n      add\n      tag_72\n      swap1\n      tag_63\n      jump\t// in\n    tag_72:\n      mload(0x40)\n      dup1\n      swap2\n      sub\n      swap1\n      revert\n    tag_71:\n        /* \"contracts/V2GLoadManagement.sol\":2524:2529  false */\n      0x00\n        /* \"contracts/V2GLoadManagement.sol\":2508:2521  isOperational */\n      dup1\n      0x14\n        /* \"contracts/V2GLoadManagement.sol\":2508:2529  isOperational = false */\n      0x0100\n      exp\n      dup2\n      sload\n      dup2\n      0xff\n      mul\n      not\n      and\n      swap1\n      dup4\n      iszero\n      iszero\n      mul\n      or\n      swap1\n      sstore\n      pop\n        /* \"contracts/V2GLoadManagement.sol\":2545:2564  ShutdownInitiated() */\n      0xe8849021a66751d01fba6e8286939266cf82b3afe550ab48d28e2119e51af45a\n      mload(0x40)\n      mload(0x40)\n      dup1\n      swap2\n      sub\n      swap1\n      log1\n        /* \"contracts/V2GLoadManagement.sol\":2444:2572  function emergencyShutdown() public onlyGridOperator {\r... */\n      jump\t// out\n        /* \"contracts/V2GLoadManagement.sol\":351:375  uint256 public maxDemand */\n    tag_31:\n      sload(0x02)\n      dup2\n      jump\t// out\n        /* \"contracts/V2GLoadManagement.sol\":118:145  address public gridOperator */\n    tag_35:\n      0x00\n      dup1\n      sload\n      swap1\n      0x0100\n      exp\n      swap1\n      div\n      0xffffffffffffffffffffffffffffffffffffffff\n      and\n      dup2\n      jump\t// out\n        /* \"contracts/V2GLoadManagement.sol\":1725:2385  function initiateTransfer(uint256 energyAmount) public operational {\r... */\n    tag_41:\n        /* \"contracts/V2GLoadManagement.sol\":1591:1604  isOperational */\n      0x00\n      0x14\n      swap1\n      sload\n      swap1\n      0x0100\n      exp\n      swap1\n      div\n      0xff\n      and\n        /* \"contracts/V2GLoadManagement.sol\":1583:1636  require(isOperational, \"Contract is not operational\") */\n      tag_75\n      jumpi\n      mload(0x40)\n      0x08c379a000000000000000000000000000000000000000000000000000000000\n      dup2\n      mstore\n      0x04\n      add\n      tag_76\n      swap1\n      tag_77\n      jump\t// in\n    tag_76:\n      mload(0x40)\n      dup1\n      swap2\n      sub\n      swap1\n      revert\n    tag_75:\n        /* \"contracts/V2GLoadManagement.sol\":1826:1827  0 */\n      0x00\n        /* \"contracts/V2GLoadManagement.sol\":1811:1823  energyAmount */\n      dup2\n        /* \"contracts/V2GLoadManagement.sol\":1811:1827  energyAmount > 0 */\n      gt\n        /* \"contracts/V2GLoadManagement.sol\":1803:1871  require(energyAmount > 0, \"Energy amount must be greater than zero\") */\n      tag_79\n      jumpi\n      mload(0x40)\n      0x08c379a000000000000000000000000000000000000000000000000000000000\n      dup2\n      mstore\n      0x04\n      add\n      tag_80\n      swap1\n      tag_81\n      jump\t// in\n    tag_80:\n      mload(0x40)\n      dup1\n      swap2\n      sub\n      swap1\n      revert\n    tag_79:\n        /* \"contracts/V2GLoadManagement.sol\":1906:1919  currentDemand */\n      sload(0x03)\n        /* \"contracts/V2GLoadManagement.sol\":1890:1902  energyAmount */\n      dup2\n        /* \"contracts/V2GLoadManagement.sol\":1890:1919  energyAmount <= currentDemand */\n      gt\n      iszero\n        /* \"contracts/V2GLoadManagement.sol\":1882:1957  require(energyAmount <= currentDemand, \"Energy amount exceeds grid demand\") */\n      tag_82\n      jumpi\n      mload(0x40)\n      0x08c379a000000000000000000000000000000000000000000000000000000000\n      dup2\n      mstore\n      0x04\n      add\n      tag_83\n      swap1\n      tag_84\n      jump\t// in\n    tag_83:\n      mload(0x40)\n      dup1\n      swap2\n      sub\n      swap1\n      revert\n    tag_82:\n        /* \"contracts/V2GLoadManagement.sol\":1970:1985  uint256 payment */\n      0x00\n        /* \"contracts/V2GLoadManagement.sol\":2003:2012  basePrice */\n      sload(0x01)\n        /* \"contracts/V2GLoadManagement.sol\":1988:2000  energyAmount */\n      dup3\n        /* \"contracts/V2GLoadManagement.sol\":1988:2012  energyAmount * basePrice */\n      tag_85\n      swap2\n      swap1\n      tag_86\n      jump\t// in\n    tag_85:\n        /* \"contracts/V2GLoadManagement.sol\":1970:2012  uint256 payment = energyAmount * basePrice */\n      swap1\n      pop\n        /* \"contracts/V2GLoadManagement.sol\":2047:2054  payment */\n      dup1\n        /* \"contracts/V2GLoadManagement.sol\":2023:2031  balances */\n      0x04\n        /* \"contracts/V2GLoadManagement.sol\":2023:2043  balances[msg.sender] */\n      0x00\n        /* \"contracts/V2GLoadManagement.sol\":2032:2042  msg.sender */\n      caller\n        /* \"contracts/V2GLoadManagement.sol\":2023:2043  balances[msg.sender] */\n      0xffffffffffffffffffffffffffffffffffffffff\n      and\n      0xffffffffffffffffffffffffffffffffffffffff\n      and\n      dup2\n      mstore\n      0x20\n      add\n      swap1\n      dup2\n      mstore\n      0x20\n      add\n      0x00\n      keccak256\n      0x00\n        /* \"contracts/V2GLoadManagement.sol\":2023:2054  balances[msg.sender] += payment */\n      dup3\n      dup3\n      sload\n      tag_87\n      swap2\n      swap1\n      tag_88\n      jump\t// in\n    tag_87:\n      swap3\n      pop\n      pop\n      dup2\n      swap1\n      sstore\n      pop\n        /* \"contracts/V2GLoadManagement.sol\":2084:2096  energyAmount */\n      dup2\n        /* \"contracts/V2GLoadManagement.sol\":2067:2080  currentDemand */\n      0x03\n      0x00\n        /* \"contracts/V2GLoadManagement.sol\":2067:2096  currentDemand -= energyAmount */\n      dup3\n      dup3\n      sload\n      tag_89\n      swap2\n      swap1\n      tag_90\n      jump\t// in\n    tag_89:\n      swap3\n      pop\n      pop\n      dup2\n      swap1\n      sstore\n      pop\n        /* \"contracts/V2GLoadManagement.sol\":2138:2148  msg.sender */\n      caller\n        /* \"contracts/V2GLoadManagement.sol\":2114:2163  EnergyTransferInitiated(msg.sender, energyAmount) */\n      0xffffffffffffffffffffffffffffffffffffffff\n      and\n      0x5a7f1d6f90b496f8387509e2e1b88fd893ed21f5b2640ba045a4bc2a19f40896\n        /* \"contracts/V2GLoadManagement.sol\":2150:2162  energyAmount */\n      dup4\n        /* \"contracts/V2GLoadManagement.sol\":2114:2163  EnergyTransferInitiated(msg.sender, energyAmount) */\n      mload(0x40)\n      tag_91\n      swap2\n      swap1\n      tag_25\n      jump\t// in\n    tag_91:\n      mload(0x40)\n      dup1\n      swap2\n      sub\n      swap1\n      log2\n        /* \"contracts/V2GLoadManagement.sol\":2179:2206  LoadAdjusted(currentDemand) */\n      0x51e72bc806394924e1651a0b30a749e331aa297d2bc6a7b1fda14a5b016528ce\n        /* \"contracts/V2GLoadManagement.sol\":2192:2205  currentDemand */\n      sload(0x03)\n        /* \"contracts/V2GLoadManagement.sol\":2179:2206  LoadAdjusted(currentDemand) */\n      mload(0x40)\n      tag_92\n      swap2\n      swap1\n      tag_25\n      jump\t// in\n    tag_92:\n      mload(0x40)\n      dup1\n      swap2\n      sub\n      swap1\n      log1\n        /* \"contracts/V2GLoadManagement.sol\":2219:2231  bool success */\n      0x00\n        /* \"contracts/V2GLoadManagement.sol\":2242:2252  msg.sender */\n      caller\n        /* \"contracts/V2GLoadManagement.sol\":2234:2258  payable(msg.sender).send */\n      0xffffffffffffffffffffffffffffffffffffffff\n      and\n        /* \"contracts/V2GLoadManagement.sol\":2234:2267  payable(msg.sender).send(payment) */\n      0x08fc\n        /* \"contracts/V2GLoadManagement.sol\":2259:2266  payment */\n      dup4\n        /* \"contracts/V2GLoadManagement.sol\":2234:2267  payable(msg.sender).send(payment) */\n      swap1\n      dup2\n      iszero\n      mul\n      swap1\n      mload(0x40)\n      0x00\n      mload(0x40)\n      dup1\n      dup4\n      sub\n      dup2\n      dup6\n      dup9\n      dup9\n      call\n      swap4\n      pop\n      pop\n      pop\n      pop\n        /* \"contracts/V2GLoadManagement.sol\":2219:2267  bool success = payable(msg.sender).send(payment) */\n      swap1\n      pop\n        /* \"contracts/V2GLoadManagement.sol\":2286:2293  success */\n      dup1\n        /* \"contracts/V2GLoadManagement.sol\":2278:2324  require(success, \"Failed to transfer payment\") */\n      tag_94\n      jumpi\n      mload(0x40)\n      0x08c379a000000000000000000000000000000000000000000000000000000000\n      dup2\n      mstore\n      0x04\n      add\n      tag_95\n      swap1\n      tag_96\n      jump\t// in\n    tag_95:\n      mload(0x40)\n      dup1\n      swap2\n      sub\n      swap1\n      revert\n    tag_94:\n        /* \"contracts/V2GLoadManagement.sol\":2357:2367  msg.sender */\n      caller\n        /* \"contracts/V2GLoadManagement.sol\":2342:2377  PaymentSettled(msg.sender, payment) */\n      0xffffffffffffffffffffffffffffffffffffffff\n      and\n      0x2d0beda258d8e23bb4d7c407b3bd723d9abeab28c7c0ee49b5842bf84e5ee6fc\n        /* \"contracts/V2GLoadManagement.sol\":2369:2376  payment */\n      dup4\n        /* \"contracts/V2GLoadManagement.sol\":2342:2377  PaymentSettled(msg.sender, payment) */\n      mload(0x40)\n      tag_97\n      swap2\n      swap1\n      tag_25\n      jump\t// in\n    tag_97:\n      mload(0x40)\n      dup1\n      swap2\n      sub\n      swap1\n      log2\n        /* \"contracts/V2GLoadManagement.sol\":1647:1648  _ */\n      pop\n      pop\n        /* \"contracts/V2GLoadManagement.sol\":1725:2385  function initiateTransfer(uint256 energyAmount) public operational {\r... */\n      pop\n      jump\t// out\n        /* \"contracts/V2GLoadManagement.sol\":415:443  uint256 public currentDemand */\n    tag_44:\n      sload(0x03)\n      dup2\n      jump\t// out\n        /* \"contracts/V2GLoadManagement.sol\":3104:3195  function resumeOperations() public onlyGridOperator {\r... */\n    tag_48:\n        /* \"contracts/V2GLoadManagement.sol\":1418:1430  gridOperator */\n      0x00\n      dup1\n      sload\n      swap1\n      0x0100\n      exp\n      swap1\n      div\n      0xffffffffffffffffffffffffffffffffffffffff\n      and\n        /* \"contracts/V2GLoadManagement.sol\":1404:1430  msg.sender == gridOperator */\n      0xffffffffffffffffffffffffffffffffffffffff\n      and\n        /* \"contracts/V2GLoadManagement.sol\":1404:1414  msg.sender */\n      caller\n        /* \"contracts/V2GLoadManagement.sol\":1404:1430  msg.sender == gridOperator */\n      0xffffffffffffffffffffffffffffffffffffffff\n      and\n      eq\n        /* \"contracts/V2GLoadManagement.sol\":1396:1466  require(msg.sender == gridOperator, \"Caller is not the grid operator\") */\n      tag_99\n      jumpi\n      mload(0x40)\n      0x08c379a000000000000000000000000000000000000000000000000000000000\n      dup2\n      mstore\n      0x04\n      add\n      tag_100\n      swap1\n      tag_63\n      jump\t// in\n    tag_100:\n      mload(0x40)\n      dup1\n      swap2\n      sub\n      swap1\n      revert\n    tag_99:\n        /* \"contracts/V2GLoadManagement.sol\":3183:3187  true */\n      0x01\n        /* \"contracts/V2GLoadManagement.sol\":3167:3180  isOperational */\n      0x00\n      0x14\n        /* \"contracts/V2GLoadManagement.sol\":3167:3187  isOperational = true */\n      0x0100\n      exp\n      dup2\n      sload\n      dup2\n      0xff\n      mul\n      not\n      and\n      swap1\n      dup4\n      iszero\n      iszero\n      mul\n      or\n      swap1\n      sstore\n      pop\n        /* \"contracts/V2GLoadManagement.sol\":3104:3195  function resumeOperations() public onlyGridOperator {\r... */\n      jump\t// out\n        /* \"contracts/V2GLoadManagement.sol\":286:310  uint256 public basePrice */\n    tag_51:\n      sload(0x01)\n      dup2\n      jump\t// out\n        /* \"contracts/V2GLoadManagement.sol\":208:233  bool public isOperational */\n    tag_55:\n      0x00\n      0x14\n      swap1\n      sload\n      swap1\n      0x0100\n      exp\n      swap1\n      div\n      0xff\n      and\n      dup2\n      jump\t// out\n        /* \"contracts/V2GLoadManagement.sol\":2632:2762  function depositFunds() public payable onlyGridOperator {\r... */\n    tag_59:\n        /* \"contracts/V2GLoadManagement.sol\":1418:1430  gridOperator */\n      0x00\n      dup1\n      sload\n      swap1\n      0x0100\n      exp\n      swap1\n      div\n      0xffffffffffffffffffffffffffffffffffffffff\n      and\n        /* \"contracts/V2GLoadManagement.sol\":1404:1430  msg.sender == gridOperator */\n      0xffffffffffffffffffffffffffffffffffffffff\n      and\n        /* \"contracts/V2GLoadManagement.sol\":1404:1414  msg.sender */\n      caller\n        /* \"contracts/V2GLoadManagement.sol\":1404:1430  msg.sender == gridOperator */\n      0xffffffffffffffffffffffffffffffffffffffff\n      and\n      eq\n        /* \"contracts/V2GLoadManagement.sol\":1396:1466  require(msg.sender == gridOperator, \"Caller is not the grid operator\") */\n      tag_103\n      jumpi\n      mload(0x40)\n      0x08c379a000000000000000000000000000000000000000000000000000000000\n      dup2\n      mstore\n      0x04\n      add\n      tag_104\n      swap1\n      tag_63\n      jump\t// in\n    tag_104:\n      mload(0x40)\n      dup1\n      swap2\n      sub\n      swap1\n      revert\n    tag_103:\n        /* \"contracts/V2GLoadManagement.sol\":2632:2762  function depositFunds() public payable onlyGridOperator {\r... */\n      jump\t// out\n        /* \"#utility.yul\":7:146   */\n    tag_107:\n      0x00\n        /* \"#utility.yul\":91:97   */\n      dup2\n        /* \"#utility.yul\":78:98   */\n      calldataload\n        /* \"#utility.yul\":69:98   */\n      swap1\n      pop\n        /* \"#utility.yul\":107:140   */\n      tag_109\n        /* \"#utility.yul\":134:139   */\n      dup2\n        /* \"#utility.yul\":107:140   */\n      tag_110\n      jump\t// in\n    tag_109:\n        /* \"#utility.yul\":59:146   */\n      swap3\n      swap2\n      pop\n      pop\n      jump\t// out\n        /* \"#utility.yul\":152:291   */\n    tag_111:\n      0x00\n        /* \"#utility.yul\":236:242   */\n      dup2\n        /* \"#utility.yul\":223:243   */\n      calldataload\n        /* \"#utility.yul\":214:243   */\n      swap1\n      pop\n        /* \"#utility.yul\":252:285   */\n      tag_113\n        /* \"#utility.yul\":279:284   */\n      dup2\n        /* \"#utility.yul\":252:285   */\n      tag_114\n      jump\t// in\n    tag_113:\n        /* \"#utility.yul\":204:291   */\n      swap3\n      swap2\n      pop\n      pop\n      jump\t// out\n        /* \"#utility.yul\":297:559   */\n    tag_22:\n      0x00\n        /* \"#utility.yul\":405:407   */\n      0x20\n        /* \"#utility.yul\":393:402   */\n      dup3\n        /* \"#utility.yul\":384:391   */\n      dup5\n        /* \"#utility.yul\":380:403   */\n      sub\n        /* \"#utility.yul\":376:408   */\n      slt\n        /* \"#utility.yul\":373:375   */\n      iszero\n      tag_116\n      jumpi\n        /* \"#utility.yul\":421:422   */\n      0x00\n        /* \"#utility.yul\":418:419   */\n      dup1\n        /* \"#utility.yul\":411:423   */\n      revert\n        /* \"#utility.yul\":373:375   */\n    tag_116:\n        /* \"#utility.yul\":464:465   */\n      0x00\n        /* \"#utility.yul\":489:542   */\n      tag_117\n        /* \"#utility.yul\":534:541   */\n      dup5\n        /* \"#utility.yul\":525:531   */\n      dup3\n        /* \"#utility.yul\":514:523   */\n      dup6\n        /* \"#utility.yul\":510:532   */\n      add\n        /* \"#utility.yul\":489:542   */\n      tag_107\n      jump\t// in\n    tag_117:\n        /* \"#utility.yul\":479:542   */\n      swap2\n      pop\n        /* \"#utility.yul\":435:552   */\n      pop\n        /* \"#utility.yul\":363:559   */\n      swap3\n      swap2\n      pop\n      pop\n      jump\t// out\n        /* \"#utility.yul\":565:827   */\n    tag_17:\n      0x00\n        /* \"#utility.yul\":673:675   */\n      0x20\n        /* \"#utility.yul\":661:670   */\n      dup3\n        /* \"#utility.yul\":652:659   */\n      dup5\n        /* \"#utility.yul\":648:671   */\n      sub\n        /* \"#utility.yul\":644:676   */\n      slt\n        /* \"#utility.yul\":641:643   */\n      iszero\n      tag_119\n      jumpi\n        /* \"#utility.yul\":689:690   */\n      0x00\n        /* \"#utility.yul\":686:687   */\n      dup1\n        /* \"#utility.yul\":679:691   */\n      revert\n        /* \"#utility.yul\":641:643   */\n    tag_119:\n        /* \"#utility.yul\":732:733   */\n      0x00\n        /* \"#utility.yul\":757:810   */\n      tag_120\n        /* \"#utility.yul\":802:809   */\n      dup5\n        /* \"#utility.yul\":793:799   */\n      dup3\n        /* \"#utility.yul\":782:791   */\n      dup6\n        /* \"#utility.yul\":778:800   */\n      add\n        /* \"#utility.yul\":757:810   */\n      tag_111\n      jump\t// in\n    tag_120:\n        /* \"#utility.yul\":747:810   */\n      swap2\n      pop\n        /* \"#utility.yul\":703:820   */\n      pop\n        /* \"#utility.yul\":631:827   */\n      swap3\n      swap2\n      pop\n      pop\n      jump\t// out\n        /* \"#utility.yul\":833:951   */\n    tag_121:\n        /* \"#utility.yul\":920:944   */\n      tag_123\n        /* \"#utility.yul\":938:943   */\n      dup2\n        /* \"#utility.yul\":920:944   */\n      tag_124\n      jump\t// in\n    tag_123:\n        /* \"#utility.yul\":915:918   */\n      dup3\n        /* \"#utility.yul\":908:945   */\n      mstore\n        /* \"#utility.yul\":898:951   */\n      pop\n      pop\n      jump\t// out\n        /* \"#utility.yul\":957:1066   */\n    tag_125:\n        /* \"#utility.yul\":1038:1059   */\n      tag_127\n        /* \"#utility.yul\":1053:1058   */\n      dup2\n        /* \"#utility.yul\":1038:1059   */\n      tag_128\n      jump\t// in\n    tag_127:\n        /* \"#utility.yul\":1033:1036   */\n      dup3\n        /* \"#utility.yul\":1026:1060   */\n      mstore\n        /* \"#utility.yul\":1016:1066   */\n      pop\n      pop\n      jump\t// out\n        /* \"#utility.yul\":1072:1396   */\n    tag_129:\n      0x00\n        /* \"#utility.yul\":1235:1302   */\n      tag_131\n        /* \"#utility.yul\":1299:1301   */\n      0x1a\n        /* \"#utility.yul\":1294:1297   */\n      dup4\n        /* \"#utility.yul\":1235:1302   */\n      tag_132\n      jump\t// in\n    tag_131:\n        /* \"#utility.yul\":1228:1302   */\n      swap2\n      pop\n        /* \"#utility.yul\":1332:1360   */\n      0x4661696c656420746f207472616e73666572207061796d656e74000000000000\n        /* \"#utility.yul\":1328:1329   */\n      0x00\n        /* \"#utility.yul\":1323:1326   */\n      dup4\n        /* \"#utility.yul\":1319:1330   */\n      add\n        /* \"#utility.yul\":1312:1361   */\n      mstore\n        /* \"#utility.yul\":1387:1389   */\n      0x20\n        /* \"#utility.yul\":1382:1385   */\n      dup3\n        /* \"#utility.yul\":1378:1390   */\n      add\n        /* \"#utility.yul\":1371:1390   */\n      swap1\n      pop\n        /* \"#utility.yul\":1218:1396   */\n      swap2\n      swap1\n      pop\n      jump\t// out\n        /* \"#utility.yul\":1402:1732   */\n    tag_133:\n      0x00\n        /* \"#utility.yul\":1565:1632   */\n      tag_135\n        /* \"#utility.yul\":1629:1631   */\n      0x20\n        /* \"#utility.yul\":1624:1627   */\n      dup4\n        /* \"#utility.yul\":1565:1632   */\n      tag_132\n      jump\t// in\n    tag_135:\n        /* \"#utility.yul\":1558:1632   */\n      swap2\n      pop\n        /* \"#utility.yul\":1662:1696   */\n      0x496e73756666696369656e742062616c616e636520696e20636f6e7472616374\n        /* \"#utility.yul\":1658:1659   */\n      0x00\n        /* \"#utility.yul\":1653:1656   */\n      dup4\n        /* \"#utility.yul\":1649:1660   */\n      add\n        /* \"#utility.yul\":1642:1697   */\n      mstore\n        /* \"#utility.yul\":1723:1725   */\n      0x20\n        /* \"#utility.yul\":1718:1721   */\n      dup3\n        /* \"#utility.yul\":1714:1726   */\n      add\n        /* \"#utility.yul\":1707:1726   */\n      swap1\n      pop\n        /* \"#utility.yul\":1548:1732   */\n      swap2\n      swap1\n      pop\n      jump\t// out\n        /* \"#utility.yul\":1738:2109   */\n    tag_136:\n      0x00\n        /* \"#utility.yul\":1901:1968   */\n      tag_138\n        /* \"#utility.yul\":1965:1967   */\n      0x27\n        /* \"#utility.yul\":1960:1963   */\n      dup4\n        /* \"#utility.yul\":1901:1968   */\n      tag_132\n      jump\t// in\n    tag_138:\n        /* \"#utility.yul\":1894:1968   */\n      swap2\n      pop\n        /* \"#utility.yul\":1998:2032   */\n      0x456e6572677920616d6f756e74206d7573742062652067726561746572207468\n        /* \"#utility.yul\":1994:1995   */\n      0x00\n        /* \"#utility.yul\":1989:1992   */\n      dup4\n        /* \"#utility.yul\":1985:1996   */\n      add\n        /* \"#utility.yul\":1978:2033   */\n      mstore\n        /* \"#utility.yul\":2064:2073   */\n      0x616e207a65726f00000000000000000000000000000000000000000000000000\n        /* \"#utility.yul\":2059:2061   */\n      0x20\n        /* \"#utility.yul\":2054:2057   */\n      dup4\n        /* \"#utility.yul\":2050:2062   */\n      add\n        /* \"#utility.yul\":2043:2074   */\n      mstore\n        /* \"#utility.yul\":2100:2102   */\n      0x40\n        /* \"#utility.yul\":2095:2098   */\n      dup3\n        /* \"#utility.yul\":2091:2103   */\n      add\n        /* \"#utility.yul\":2084:2103   */\n      swap1\n      pop\n        /* \"#utility.yul\":1884:2109   */\n      swap2\n      swap1\n      pop\n      jump\t// out\n        /* \"#utility.yul\":2115:2440   */\n    tag_139:\n      0x00\n        /* \"#utility.yul\":2278:2345   */\n      tag_141\n        /* \"#utility.yul\":2342:2344   */\n      0x1b\n        /* \"#utility.yul\":2337:2340   */\n      dup4\n        /* \"#utility.yul\":2278:2345   */\n      tag_132\n      jump\t// in\n    tag_141:\n        /* \"#utility.yul\":2271:2345   */\n      swap2\n      pop\n        /* \"#utility.yul\":2375:2404   */\n      0x436f6e7472616374206973206e6f74206f7065726174696f6e616c0000000000\n        /* \"#utility.yul\":2371:2372   */\n      0x00\n        /* \"#utility.yul\":2366:2369   */\n      dup4\n        /* \"#utility.yul\":2362:2373   */\n      add\n        /* \"#utility.yul\":2355:2405   */\n      mstore\n        /* \"#utility.yul\":2431:2433   */\n      0x20\n        /* \"#utility.yul\":2426:2429   */\n      dup3\n        /* \"#utility.yul\":2422:2434   */\n      add\n        /* \"#utility.yul\":2415:2434   */\n      swap1\n      pop\n        /* \"#utility.yul\":2261:2440   */\n      swap2\n      swap1\n      pop\n      jump\t// out\n        /* \"#utility.yul\":2446:2811   */\n    tag_142:\n      0x00\n        /* \"#utility.yul\":2609:2676   */\n      tag_144\n        /* \"#utility.yul\":2673:2675   */\n      0x21\n        /* \"#utility.yul\":2668:2671   */\n      dup4\n        /* \"#utility.yul\":2609:2676   */\n      tag_132\n      jump\t// in\n    tag_144:\n        /* \"#utility.yul\":2602:2676   */\n      swap2\n      pop\n        /* \"#utility.yul\":2706:2740   */\n      0x456e6572677920616d6f756e74206578636565647320677269642064656d616e\n        /* \"#utility.yul\":2702:2703   */\n      0x00\n        /* \"#utility.yul\":2697:2700   */\n      dup4\n        /* \"#utility.yul\":2693:2704   */\n      add\n        /* \"#utility.yul\":2686:2741   */\n      mstore\n        /* \"#utility.yul\":2772:2775   */\n      0x6400000000000000000000000000000000000000000000000000000000000000\n        /* \"#utility.yul\":2767:2769   */\n      0x20\n        /* \"#utility.yul\":2762:2765   */\n      dup4\n        /* \"#utility.yul\":2758:2770   */\n      add\n        /* \"#utility.yul\":2751:2776   */\n      mstore\n        /* \"#utility.yul\":2802:2804   */\n      0x40\n        /* \"#utility.yul\":2797:2800   */\n      dup3\n        /* \"#utility.yul\":2793:2805   */\n      add\n        /* \"#utility.yul\":2786:2805   */\n      swap1\n      pop\n        /* \"#utility.yul\":2592:2811   */\n      swap2\n      swap1\n      pop\n      jump\t// out\n        /* \"#utility.yul\":2817:3146   */\n    tag_145:\n      0x00\n        /* \"#utility.yul\":2980:3047   */\n      tag_147\n        /* \"#utility.yul\":3044:3046   */\n      0x1f\n        /* \"#utility.yul\":3039:3042   */\n      dup4\n        /* \"#utility.yul\":2980:3047   */\n      tag_132\n      jump\t// in\n    tag_147:\n        /* \"#utility.yul\":2973:3047   */\n      swap2\n      pop\n        /* \"#utility.yul\":3077:3110   */\n      0x43616c6c6572206973206e6f74207468652067726964206f70657261746f7200\n        /* \"#utility.yul\":3073:3074   */\n      0x00\n        /* \"#utility.yul\":3068:3071   */\n      dup4\n        /* \"#utility.yul\":3064:3075   */\n      add\n        /* \"#utility.yul\":3057:3111   */\n      mstore\n        /* \"#utility.yul\":3137:3139   */\n      0x20\n        /* \"#utility.yul\":3132:3135   */\n      dup3\n        /* \"#utility.yul\":3128:3140   */\n      add\n        /* \"#utility.yul\":3121:3140   */\n      swap1\n      pop\n        /* \"#utility.yul\":2963:3146   */\n      swap2\n      swap1\n      pop\n      jump\t// out\n        /* \"#utility.yul\":3152:3270   */\n    tag_148:\n        /* \"#utility.yul\":3239:3263   */\n      tag_150\n        /* \"#utility.yul\":3257:3262   */\n      dup2\n        /* \"#utility.yul\":3239:3263   */\n      tag_151\n      jump\t// in\n    tag_150:\n        /* \"#utility.yul\":3234:3237   */\n      dup3\n        /* \"#utility.yul\":3227:3264   */\n      mstore\n        /* \"#utility.yul\":3217:3270   */\n      pop\n      pop\n      jump\t// out\n        /* \"#utility.yul\":3276:3498   */\n    tag_37:\n      0x00\n        /* \"#utility.yul\":3407:3409   */\n      0x20\n        /* \"#utility.yul\":3396:3405   */\n      dup3\n        /* \"#utility.yul\":3392:3410   */\n      add\n        /* \"#utility.yul\":3384:3410   */\n      swap1\n      pop\n        /* \"#utility.yul\":3420:3491   */\n      tag_153\n        /* \"#utility.yul\":3488:3489   */\n      0x00\n        /* \"#utility.yul\":3477:3486   */\n      dup4\n        /* \"#utility.yul\":3473:3490   */\n      add\n        /* \"#utility.yul\":3464:3470   */\n      dup5\n        /* \"#utility.yul\":3420:3491   */\n      tag_121\n      jump\t// in\n    tag_153:\n        /* \"#utility.yul\":3374:3498   */\n      swap3\n      swap2\n      pop\n      pop\n      jump\t// out\n        /* \"#utility.yul\":3504:3714   */\n    tag_57:\n      0x00\n        /* \"#utility.yul\":3629:3631   */\n      0x20\n        /* \"#utility.yul\":3618:3627   */\n      dup3\n        /* \"#utility.yul\":3614:3632   */\n      add\n        /* \"#utility.yul\":3606:3632   */\n      swap1\n      pop\n        /* \"#utility.yul\":3642:3707   */\n      tag_155\n        /* \"#utility.yul\":3704:3705   */\n      0x00\n        /* \"#utility.yul\":3693:3702   */\n      dup4\n        /* \"#utility.yul\":3689:3706   */\n      add\n        /* \"#utility.yul\":3680:3686   */\n      dup5\n        /* \"#utility.yul\":3642:3707   */\n      tag_125\n      jump\t// in\n    tag_155:\n        /* \"#utility.yul\":3596:3714   */\n      swap3\n      swap2\n      pop\n      pop\n      jump\t// out\n        /* \"#utility.yul\":3720:4139   */\n    tag_96:\n      0x00\n        /* \"#utility.yul\":3924:3926   */\n      0x20\n        /* \"#utility.yul\":3913:3922   */\n      dup3\n        /* \"#utility.yul\":3909:3927   */\n      add\n        /* \"#utility.yul\":3901:3927   */\n      swap1\n      pop\n        /* \"#utility.yul\":3973:3982   */\n      dup2\n        /* \"#utility.yul\":3967:3971   */\n      dup2\n        /* \"#utility.yul\":3963:3983   */\n      sub\n        /* \"#utility.yul\":3959:3960   */\n      0x00\n        /* \"#utility.yul\":3948:3957   */\n      dup4\n        /* \"#utility.yul\":3944:3961   */\n      add\n        /* \"#utility.yul\":3937:3984   */\n      mstore\n        /* \"#utility.yul\":4001:4132   */\n      tag_157\n        /* \"#utility.yul\":4127:4131   */\n      dup2\n        /* \"#utility.yul\":4001:4132   */\n      tag_129\n      jump\t// in\n    tag_157:\n        /* \"#utility.yul\":3993:4132   */\n      swap1\n      pop\n        /* \"#utility.yul\":3891:4139   */\n      swap2\n      swap1\n      pop\n      jump\t// out\n        /* \"#utility.yul\":4145:4564   */\n    tag_67:\n      0x00\n        /* \"#utility.yul\":4349:4351   */\n      0x20\n        /* \"#utility.yul\":4338:4347   */\n      dup3\n        /* \"#utility.yul\":4334:4352   */\n      add\n        /* \"#utility.yul\":4326:4352   */\n      swap1\n      pop\n        /* \"#utility.yul\":4398:4407   */\n      dup2\n        /* \"#utility.yul\":4392:4396   */\n      dup2\n        /* \"#utility.yul\":4388:4408   */\n      sub\n        /* \"#utility.yul\":4384:4385   */\n      0x00\n        /* \"#utility.yul\":4373:4382   */\n      dup4\n        /* \"#utility.yul\":4369:4386   */\n      add\n        /* \"#utility.yul\":4362:4409   */\n      mstore\n        /* \"#utility.yul\":4426:4557   */\n      tag_159\n        /* \"#utility.yul\":4552:4556   */\n      dup2\n        /* \"#utility.yul\":4426:4557   */\n      tag_133\n      jump\t// in\n    tag_159:\n        /* \"#utility.yul\":4418:4557   */\n      swap1\n      pop\n        /* \"#utility.yul\":4316:4564   */\n      swap2\n      swap1\n      pop\n      jump\t// out\n        /* \"#utility.yul\":4570:4989   */\n    tag_81:\n      0x00\n        /* \"#utility.yul\":4774:4776   */\n      0x20\n        /* \"#utility.yul\":4763:4772   */\n      dup3\n        /* \"#utility.yul\":4759:4777   */\n      add\n        /* \"#utility.yul\":4751:4777   */\n      swap1\n      pop\n        /* \"#utility.yul\":4823:4832   */\n      dup2\n        /* \"#utility.yul\":4817:4821   */\n      dup2\n        /* \"#utility.yul\":4813:4833   */\n      sub\n        /* \"#utility.yul\":4809:4810   */\n      0x00\n        /* \"#utility.yul\":4798:4807   */\n      dup4\n        /* \"#utility.yul\":4794:4811   */\n      add\n        /* \"#utility.yul\":4787:4834   */\n      mstore\n        /* \"#utility.yul\":4851:4982   */\n      tag_161\n        /* \"#utility.yul\":4977:4981   */\n      dup2\n        /* \"#utility.yul\":4851:4982   */\n      tag_136\n      jump\t// in\n    tag_161:\n        /* \"#utility.yul\":4843:4982   */\n      swap1\n      pop\n        /* \"#utility.yul\":4741:4989   */\n      swap2\n      swap1\n      pop\n      jump\t// out\n        /* \"#utility.yul\":4995:5414   */\n    tag_77:\n      0x00\n        /* \"#utility.yul\":5199:5201   */\n      0x20\n        /* \"#utility.yul\":5188:5197   */\n      dup3\n        /* \"#utility.yul\":5184:5202   */\n      add\n        /* \"#utility.yul\":5176:5202   */\n      swap1\n      pop\n        /* \"#utility.yul\":5248:5257   */\n      dup2\n        /* \"#utility.yul\":5242:5246   */\n      dup2\n        /* \"#utility.yul\":5238:5258   */\n      sub\n        /* \"#utility.yul\":5234:5235   */\n      0x00\n        /* \"#utility.yul\":5223:5232   */\n      dup4\n        /* \"#utility.yul\":5219:5236   */\n      add\n        /* \"#utility.yul\":5212:5259   */\n      mstore\n        /* \"#utility.yul\":5276:5407   */\n      tag_163\n        /* \"#utility.yul\":5402:5406   */\n      dup2\n        /* \"#utility.yul\":5276:5407   */\n      tag_139\n      jump\t// in\n    tag_163:\n        /* \"#utility.yul\":5268:5407   */\n      swap1\n      pop\n        /* \"#utility.yul\":5166:5414   */\n      swap2\n      swap1\n      pop\n      jump\t// out\n        /* \"#utility.yul\":5420:5839   */\n    tag_84:\n      0x00\n        /* \"#utility.yul\":5624:5626   */\n      0x20\n        /* \"#utility.yul\":5613:5622   */\n      dup3\n        /* \"#utility.yul\":5609:5627   */\n      add\n        /* \"#utility.yul\":5601:5627   */\n      swap1\n      pop\n        /* \"#utility.yul\":5673:5682   */\n      dup2\n        /* \"#utility.yul\":5667:5671   */\n      dup2\n        /* \"#utility.yul\":5663:5683   */\n      sub\n        /* \"#utility.yul\":5659:5660   */\n      0x00\n        /* \"#utility.yul\":5648:5657   */\n      dup4\n        /* \"#utility.yul\":5644:5661   */\n      add\n        /* \"#utility.yul\":5637:5684   */\n      mstore\n        /* \"#utility.yul\":5701:5832   */\n      tag_165\n        /* \"#utility.yul\":5827:5831   */\n      dup2\n        /* \"#utility.yul\":5701:5832   */\n      tag_142\n      jump\t// in\n    tag_165:\n        /* \"#utility.yul\":5693:5832   */\n      swap1\n      pop\n        /* \"#utility.yul\":5591:5839   */\n      swap2\n      swap1\n      pop\n      jump\t// out\n        /* \"#utility.yul\":5845:6264   */\n    tag_63:\n      0x00\n        /* \"#utility.yul\":6049:6051   */\n      0x20\n        /* \"#utility.yul\":6038:6047   */\n      dup3\n        /* \"#utility.yul\":6034:6052   */\n      add\n        /* \"#utility.yul\":6026:6052   */\n      swap1\n      pop\n        /* \"#utility.yul\":6098:6107   */\n      dup2\n        /* \"#utility.yul\":6092:6096   */\n      dup2\n        /* \"#utility.yul\":6088:6108   */\n      sub\n        /* \"#utility.yul\":6084:6085   */\n      0x00\n        /* \"#utility.yul\":6073:6082   */\n      dup4\n        /* \"#utility.yul\":6069:6086   */\n      add\n        /* \"#utility.yul\":6062:6109   */\n      mstore\n        /* \"#utility.yul\":6126:6257   */\n      tag_167\n        /* \"#utility.yul\":6252:6256   */\n      dup2\n        /* \"#utility.yul\":6126:6257   */\n      tag_145\n      jump\t// in\n    tag_167:\n        /* \"#utility.yul\":6118:6257   */\n      swap1\n      pop\n        /* \"#utility.yul\":6016:6264   */\n      swap2\n      swap1\n      pop\n      jump\t// out\n        /* \"#utility.yul\":6270:6492   */\n    tag_25:\n      0x00\n        /* \"#utility.yul\":6401:6403   */\n      0x20\n        /* \"#utility.yul\":6390:6399   */\n      dup3\n        /* \"#utility.yul\":6386:6404   */\n      add\n        /* \"#utility.yul\":6378:6404   */\n      swap1\n      pop\n        /* \"#utility.yul\":6414:6485   */\n      tag_169\n        /* \"#utility.yul\":6482:6483   */\n      0x00\n        /* \"#utility.yul\":6471:6480   */\n      dup4\n        /* \"#utility.yul\":6467:6484   */\n      add\n        /* \"#utility.yul\":6458:6464   */\n      dup5\n        /* \"#utility.yul\":6414:6485   */\n      tag_148\n      jump\t// in\n    tag_169:\n        /* \"#utility.yul\":6368:6492   */\n      swap3\n      swap2\n      pop\n      pop\n      jump\t// out\n        /* \"#utility.yul\":6498:6667   */\n    tag_132:\n      0x00\n        /* \"#utility.yul\":6616:6622   */\n      dup3\n        /* \"#utility.yul\":6611:6614   */\n      dup3\n        /* \"#utility.yul\":6604:6623   */\n      mstore\n        /* \"#utility.yul\":6656:6660   */\n      0x20\n        /* \"#utility.yul\":6651:6654   */\n      dup3\n        /* \"#utility.yul\":6647:6661   */\n      add\n        /* \"#utility.yul\":6632:6661   */\n      swap1\n      pop\n        /* \"#utility.yul\":6594:6667   */\n      swap3\n      swap2\n      pop\n      pop\n      jump\t// out\n        /* \"#utility.yul\":6673:6978   */\n    tag_88:\n      0x00\n        /* \"#utility.yul\":6732:6752   */\n      tag_172\n        /* \"#utility.yul\":6750:6751   */\n      dup3\n        /* \"#utility.yul\":6732:6752   */\n      tag_151\n      jump\t// in\n    tag_172:\n        /* \"#utility.yul\":6727:6752   */\n      swap2\n      pop\n        /* \"#utility.yul\":6766:6786   */\n      tag_173\n        /* \"#utility.yul\":6784:6785   */\n      dup4\n        /* \"#utility.yul\":6766:6786   */\n      tag_151\n      jump\t// in\n    tag_173:\n        /* \"#utility.yul\":6761:6786   */\n      swap3\n      pop\n        /* \"#utility.yul\":6920:6921   */\n      dup3\n        /* \"#utility.yul\":6852:6918   */\n      0xffffffffffffffffffffffffffffffffffffffffffffffffffffffffffffffff\n        /* \"#utility.yul\":6848:6922   */\n      sub\n        /* \"#utility.yul\":6845:6846   */\n      dup3\n        /* \"#utility.yul\":6842:6923   */\n      gt\n        /* \"#utility.yul\":6839:6841   */\n      iszero\n      tag_174\n      jumpi\n        /* \"#utility.yul\":6926:6944   */\n      tag_175\n      tag_176\n      jump\t// in\n    tag_175:\n        /* \"#utility.yul\":6839:6841   */\n    tag_174:\n        /* \"#utility.yul\":6970:6971   */\n      dup3\n        /* \"#utility.yul\":6967:6968   */\n      dup3\n        /* \"#utility.yul\":6963:6972   */\n      add\n        /* \"#utility.yul\":6956:6972   */\n      swap1\n      pop\n        /* \"#utility.yul\":6717:6978   */\n      swap3\n      swap2\n      pop\n      pop\n      jump\t// out\n        /* \"#utility.yul\":6984:7332   */\n    tag_86:\n      0x00\n        /* \"#utility.yul\":7047:7067   */\n      tag_178\n        /* \"#utility.yul\":7065:7066   */\n      dup3\n        /* \"#utility.yul\":7047:7067   */\n      tag_151\n      jump\t// in\n    tag_178:\n        /* \"#utility.yul\":7042:7067   */\n      swap2\n      pop\n        /* \"#utility.yul\":7081:7101   */\n      tag_179\n        /* \"#utility.yul\":7099:7100   */\n      dup4\n        /* \"#utility.yul\":7081:7101   */\n      tag_151\n      jump\t// in\n    tag_179:\n        /* \"#utility.yul\":7076:7101   */\n      swap3\n      pop\n        /* \"#utility.yul\":7269:7270   */\n      dup2\n        /* \"#utility.yul\":7201:7267   */\n      0xffffffffffffffffffffffffffffffffffffffffffffffffffffffffffffffff\n        /* \"#utility.yul\":7197:7271   */\n      div\n        /* \"#utility.yul\":7194:7195   */\n      dup4\n        /* \"#utility.yul\":7191:7272   */\n      gt\n        /* \"#utility.yul\":7186:7187   */\n      dup3\n        /* \"#utility.yul\":7179:7188   */\n      iszero\n        /* \"#utility.yul\":7172:7189   */\n      iszero\n        /* \"#utility.yul\":7168:7273   */\n      and\n        /* \"#utility.yul\":7165:7167   */\n      iszero\n      tag_180\n      jumpi\n        /* \"#utility.yul\":7276:7294   */\n      tag_181\n      tag_176\n      jump\t// in\n    tag_181:\n        /* \"#utility.yul\":7165:7167   */\n    tag_180:\n        /* \"#utility.yul\":7324:7325   */\n      dup3\n        /* \"#utility.yul\":7321:7322   */\n      dup3\n        /* \"#utility.yul\":7317:7326   */\n      mul\n        /* \"#utility.yul\":7306:7326   */\n      swap1\n      pop\n        /* \"#utility.yul\":7032:7332   */\n      swap3\n      swap2\n      pop\n      pop\n      jump\t// out\n        /* \"#utility.yul\":7338:7529   */\n    tag_90:\n      0x00\n        /* \"#utility.yul\":7398:7418   */\n      tag_183\n        /* \"#utility.yul\":7416:7417   */\n      dup3\n        /* \"#utility.yul\":7398:7418   */\n      tag_151\n      jump\t// in\n    tag_183:\n        /* \"#utility.yul\":7393:7418   */\n      swap2\n      pop\n        /* \"#utility.yul\":7432:7452   */\n      tag_184\n        /* \"#utility.yul\":7450:7451   */\n      dup4\n        /* \"#utility.yul\":7432:7452   */\n      tag_151\n      jump\t// in\n    tag_184:\n        /* \"#utility.yul\":7427:7452   */\n      swap3\n      pop\n        /* \"#utility.yul\":7471:7472   */\n      dup3\n        /* \"#utility.yul\":7468:7469   */\n      dup3\n        /* \"#utility.yul\":7465:7473   */\n      lt\n        /* \"#utility.yul\":7462:7464   */\n      iszero\n      tag_185\n      jumpi\n        /* \"#utility.yul\":7476:7494   */\n      tag_186\n      tag_176\n      jump\t// in\n    tag_186:\n        /* \"#utility.yul\":7462:7464   */\n    tag_185:\n        /* \"#utility.yul\":7521:7522   */\n      dup3\n        /* \"#utility.yul\":7518:7519   */\n      dup3\n        /* \"#utility.yul\":7514:7523   */\n      sub\n        /* \"#utility.yul\":7506:7523   */\n      swap1\n      pop\n        /* \"#utility.yul\":7383:7529   */\n      swap3\n      swap2\n      pop\n      pop\n      jump\t// out\n        /* \"#utility.yul\":7535:7631   */\n    tag_124:\n      0x00\n        /* \"#utility.yul\":7601:7625   */\n      tag_188\n        /* \"#utility.yul\":7619:7624   */\n      dup3\n        /* \"#utility.yul\":7601:7625   */\n      tag_189\n      jump\t// in\n    tag_188:\n        /* \"#utility.yul\":7590:7625   */\n      swap1\n      pop\n        /* \"#utility.yul\":7580:7631   */\n      swap2\n      swap1\n      pop\n      jump\t// out\n        /* \"#utility.yul\":7637:7727   */\n    tag_128:\n      0x00\n        /* \"#utility.yul\":7714:7719   */\n      dup2\n        /* \"#utility.yul\":7707:7720   */\n      iszero\n        /* \"#utility.yul\":7700:7721   */\n      iszero\n        /* \"#utility.yul\":7689:7721   */\n      swap1\n      pop\n        /* \"#utility.yul\":7679:7727   */\n      swap2\n      swap1\n      pop\n      jump\t// out\n        /* \"#utility.yul\":7733:7859   */\n    tag_189:\n      0x00\n        /* \"#utility.yul\":7810:7852   */\n      0xffffffffffffffffffffffffffffffffffffffff\n        /* \"#utility.yul\":7803:7808   */\n      dup3\n        /* \"#utility.yul\":7799:7853   */\n      and\n        /* \"#utility.yul\":7788:7853   */\n      swap1\n      pop\n        /* \"#utility.yul\":7778:7859   */\n      swap2\n      swap1\n      pop\n      jump\t// out\n        /* \"#utility.yul\":7865:7942   */\n    tag_151:\n      0x00\n        /* \"#utility.yul\":7931:7936   */\n      dup2\n        /* \"#utility.yul\":7920:7936   */\n      swap1\n      pop\n        /* \"#utility.yul\":7910:7942   */\n      swap2\n      swap1\n      pop\n      jump\t// out\n        /* \"#utility.yul\":7948:8128   */\n    tag_176:\n        /* \"#utility.yul\":7996:8073   */\n      0x4e487b7100000000000000000000000000000000000000000000000000000000\n        /* \"#utility.yul\":7993:7994   */\n      0x00\n        /* \"#utility.yul\":7986:8074   */\n      mstore\n        /* \"#utility.yul\":8093:8097   */\n      0x11\n        /* \"#utility.yul\":8090:8091   */\n      0x04\n        /* \"#utility.yul\":8083:8098   */\n      mstore\n        /* \"#utility.yul\":8117:8121   */\n      0x24\n        /* \"#utility.yul\":8114:8115   */\n      0x00\n        /* \"#utility.yul\":8107:8122   */\n      revert\n        /* \"#utility.yul\":8134:8256   */\n    tag_110:\n        /* \"#utility.yul\":8207:8231   */\n      tag_195\n        /* \"#utility.yul\":8225:8230   */\n      dup2\n        /* \"#utility.yul\":8207:8231   */\n      tag_124\n      jump\t// in\n    tag_195:\n        /* \"#utility.yul\":8200:8205   */\n      dup2\n        /* \"#utility.yul\":8197:8232   */\n      eq\n        /* \"#utility.yul\":8187:8189   */\n      tag_196\n      jumpi\n        /* \"#utility.yul\":8246:8247   */\n      0x00\n        /* \"#utility.yul\":8243:8244   */\n      dup1\n        /* \"#utility.yul\":8236:8248   */\n      revert\n        /* \"#utility.yul\":8187:8189   */\n    tag_196:\n        /* \"#utility.yul\":8177:8256   */\n      pop\n      jump\t// out\n        /* \"#utility.yul\":8262:8384   */\n    tag_114:\n        /* \"#utility.yul\":8335:8359   */\n      tag_198\n        /* \"#utility.yul\":8353:8358   */\n      dup2\n        /* \"#utility.yul\":8335:8359   */\n      tag_151\n      jump\t// in\n    tag_198:\n        /* \"#utility.yul\":8328:8333   */\n      dup2\n        /* \"#utility.yul\":8325:8360   */\n      eq\n        /* \"#utility.yul\":8315:8317   */\n      tag_199\n      jumpi\n        /* \"#utility.yul\":8374:8375   */\n      0x00\n        /* \"#utility.yul\":8371:8372   */\n      dup1\n        /* \"#utility.yul\":8364:8376   */\n      revert\n        /* \"#utility.yul\":8315:8317   */\n    tag_199:\n        /* \"#utility.yul\":8305:8384   */\n      pop\n      jump\t// out\n\n    auxdata: 0xa26469706673582212205e12af72ba6e4561bfed9db2748e5f3501059f5724111fe561b845ba2f1e651164736f6c63430008000033\n}\n",
				"bytecode": {
					"linkReferences": {},
					"object": "608060405234801561001057600080fd5b50604051610f17380380610f17833981810160405281019061003291906100be565b336000806101000a81548173ffffffffffffffffffffffffffffffffffffffff021916908373ffffffffffffffffffffffffffffffffffffffff1602179055506001600060146101000a81548160ff021916908315150217905550816001819055508060028190555080600381905550505061011b565b6000815190506100b881610104565b92915050565b600080604083850312156100d157600080fd5b60006100df858286016100a9565b92505060206100f0858286016100a9565b9150509250929050565b6000819050919050565b61010d816100fa565b811461011857600080fd5b50565b610ded8061012a6000396000f3fe60806040526004361061009c5760003560e01c806361a31e001161006457806361a31e00146101745780639e6e2e551461019d578063a6e1d016146101c8578063c7876ea4146101df578063cd905dff1461020a578063e2c41dbc146102355761009c565b8063155dd5ee146100a157806327e235e3146100ca5780633403c2fc146101075780633defde131461011e5780634b62811b14610149575b600080fd5b3480156100ad57600080fd5b506100c860048036038101906100c391906108ea565b61023f565b005b3480156100d657600080fd5b506100f160048036038101906100ec91906108c1565b61037a565b6040516100fe9190610c02565b60405180910390f35b34801561011357600080fd5b5061011c610392565b005b34801561012a57600080fd5b50610133610468565b6040516101409190610c02565b60405180910390f35b34801561015557600080fd5b5061015e61046e565b60405161016b9190610b0c565b60405180910390f35b34801561018057600080fd5b5061019b600480360381019061019691906108ea565b610492565b005b3480156101a957600080fd5b506101b261073d565b6040516101bf9190610c02565b60405180910390f35b3480156101d457600080fd5b506101dd610743565b005b3480156101eb57600080fd5b506101f46107ee565b6040516102019190610c02565b60405180910390f35b34801561021657600080fd5b5061021f6107f4565b60405161022c9190610b27565b60405180910390f35b61023d610807565b005b60008054906101000a900473ffffffffffffffffffffffffffffffffffffffff1673ffffffffffffffffffffffffffffffffffffffff163373ffffffffffffffffffffffffffffffffffffffff16146102cd576040517f08c379a00000000000000000000000000000000000000000000000000000000081526004016102c490610be2565b60405180910390fd5b47811115610310576040517f08c379a000000000000000000000000000000000000000000000000000000000815260040161030790610b62565b60405180910390fd5b60008054906101000a900473ffffffffffffffffffffffffffffffffffffffff1673ffffffffffffffffffffffffffffffffffffffff166108fc829081150290604051600060405180830381858888f19350505050158015610376573d6000803e3d6000fd5b5050565b60046020528060005260406000206000915090505481565b60008054906101000a900473ffffffffffffffffffffffffffffffffffffffff1673ffffffffffffffffffffffffffffffffffffffff163373ffffffffffffffffffffffffffffffffffffffff1614610420576040517f08c379a000000000000000000000000000000000000000000000000000000000815260040161041790610be2565b60405180910390fd5b60008060146101000a81548160ff0219169083151502179055507fe8849021a66751d01fba6e8286939266cf82b3afe550ab48d28e2119e51af45a60405160405180910390a1565b60025481565b60008054906101000a900473ffffffffffffffffffffffffffffffffffffffff1681565b600060149054906101000a900460ff166104e1576040517f08c379a00000000000000000000000000000000000000000000000000000000081526004016104d890610ba2565b60405180910390fd5b60008111610524576040517f08c379a000000000000000000000000000000000000000000000000000000000815260040161051b90610b82565b60405180910390fd5b600354811115610569576040517f08c379a000000000000000000000000000000000000000000000000000000000815260040161056090610bc2565b60405180910390fd5b6000600154826105799190610c84565b905080600460003373ffffffffffffffffffffffffffffffffffffffff1673ffffffffffffffffffffffffffffffffffffffff16815260200190815260200160002060008282546105ca9190610c2e565b9250508190555081600360008282546105e39190610cde565b925050819055503373ffffffffffffffffffffffffffffffffffffffff167f5a7f1d6f90b496f8387509e2e1b88fd893ed21f5b2640ba045a4bc2a19f40896836040516106309190610c02565b60405180910390a27f51e72bc806394924e1651a0b30a749e331aa297d2bc6a7b1fda14a5b016528ce6003546040516106699190610c02565b60405180910390a160003373ffffffffffffffffffffffffffffffffffffffff166108fc839081150290604051600060405180830381858888f193505050509050806106ea576040517f08c379a00000000000000000000000000000000000000000000000000000000081526004016106e190610b42565b60405180910390fd5b3373ffffffffffffffffffffffffffffffffffffffff167f2d0beda258d8e23bb4d7c407b3bd723d9abeab28c7c0ee49b5842bf84e5ee6fc836040516107309190610c02565b60405180910390a2505050565b60035481565b60008054906101000a900473ffffffffffffffffffffffffffffffffffffffff1673ffffffffffffffffffffffffffffffffffffffff163373ffffffffffffffffffffffffffffffffffffffff16146107d1576040517f08c379a00000000000000000000000000000000000000000000000000000000081526004016107c890610be2565b60405180910390fd5b6001600060146101000a81548160ff021916908315150217905550565b60015481565b600060149054906101000a900460ff1681565b60008054906101000a900473ffffffffffffffffffffffffffffffffffffffff1673ffffffffffffffffffffffffffffffffffffffff163373ffffffffffffffffffffffffffffffffffffffff1614610895576040517f08c379a000000000000000000000000000000000000000000000000000000000815260040161088c90610be2565b60405180910390fd5b565b6000813590506108a681610d89565b92915050565b6000813590506108bb81610da0565b92915050565b6000602082840312156108d357600080fd5b60006108e184828501610897565b91505092915050565b6000602082840312156108fc57600080fd5b600061090a848285016108ac565b91505092915050565b61091c81610d12565b82525050565b61092b81610d24565b82525050565b600061093e601a83610c1d565b91507f4661696c656420746f207472616e73666572207061796d656e740000000000006000830152602082019050919050565b600061097e602083610c1d565b91507f496e73756666696369656e742062616c616e636520696e20636f6e74726163746000830152602082019050919050565b60006109be602783610c1d565b91507f456e6572677920616d6f756e74206d757374206265206772656174657220746860008301527f616e207a65726f000000000000000000000000000000000000000000000000006020830152604082019050919050565b6000610a24601b83610c1d565b91507f436f6e7472616374206973206e6f74206f7065726174696f6e616c00000000006000830152602082019050919050565b6000610a64602183610c1d565b91507f456e6572677920616d6f756e74206578636565647320677269642064656d616e60008301527f64000000000000000000000000000000000000000000000000000000000000006020830152604082019050919050565b6000610aca601f83610c1d565b91507f43616c6c6572206973206e6f74207468652067726964206f70657261746f72006000830152602082019050919050565b610b0681610d50565b82525050565b6000602082019050610b216000830184610913565b92915050565b6000602082019050610b3c6000830184610922565b92915050565b60006020820190508181036000830152610b5b81610931565b9050919050565b60006020820190508181036000830152610b7b81610971565b9050919050565b60006020820190508181036000830152610b9b816109b1565b9050919050565b60006020820190508181036000830152610bbb81610a17565b9050919050565b60006020820190508181036000830152610bdb81610a57565b9050919050565b60006020820190508181036000830152610bfb81610abd565b9050919050565b6000602082019050610c176000830184610afd565b92915050565b600082825260208201905092915050565b6000610c3982610d50565b9150610c4483610d50565b9250827fffffffffffffffffffffffffffffffffffffffffffffffffffffffffffffffff03821115610c7957610c78610d5a565b5b828201905092915050565b6000610c8f82610d50565b9150610c9a83610d50565b9250817fffffffffffffffffffffffffffffffffffffffffffffffffffffffffffffffff0483118215151615610cd357610cd2610d5a565b5b828202905092915050565b6000610ce982610d50565b9150610cf483610d50565b925082821015610d0757610d06610d5a565b5b828203905092915050565b6000610d1d82610d30565b9050919050565b60008115159050919050565b600073ffffffffffffffffffffffffffffffffffffffff82169050919050565b6000819050919050565b7f4e487b7100000000000000000000000000000000000000000000000000000000600052601160045260246000fd5b610d9281610d12565b8114610d9d57600080fd5b50565b610da981610d50565b8114610db457600080fd5b5056fea26469706673582212205e12af72ba6e4561bfed9db2748e5f3501059f5724111fe561b845ba2f1e651164736f6c63430008000033",
					"opcodes": "PUSH1 0x80 PUSH1 0x40 MSTORE CALLVALUE DUP1 ISZERO PUSH2 0x10 JUMPI PUSH1 0x0 DUP1 REVERT JUMPDEST POP PUSH1 0x40 MLOAD PUSH2 0xF17 CODESIZE SUB DUP1 PUSH2 0xF17 DUP4 CODECOPY DUP2 DUP2 ADD PUSH1 0x40 MSTORE DUP2 ADD SWAP1 PUSH2 0x32 SWAP2 SWAP1 PUSH2 0xBE JUMP JUMPDEST CALLER PUSH1 0x0 DUP1 PUSH2 0x100 EXP DUP2 SLOAD DUP2 PUSH20 0xFFFFFFFFFFFFFFFFFFFFFFFFFFFFFFFFFFFFFFFF MUL NOT AND SWAP1 DUP4 PUSH20 0xFFFFFFFFFFFFFFFFFFFFFFFFFFFFFFFFFFFFFFFF AND MUL OR SWAP1 SSTORE POP PUSH1 0x1 PUSH1 0x0 PUSH1 0x14 PUSH2 0x100 EXP DUP2 SLOAD DUP2 PUSH1 0xFF MUL NOT AND SWAP1 DUP4 ISZERO ISZERO MUL OR SWAP1 SSTORE POP DUP2 PUSH1 0x1 DUP2 SWAP1 SSTORE POP DUP1 PUSH1 0x2 DUP2 SWAP1 SSTORE POP DUP1 PUSH1 0x3 DUP2 SWAP1 SSTORE POP POP POP PUSH2 0x11B JUMP JUMPDEST PUSH1 0x0 DUP2 MLOAD SWAP1 POP PUSH2 0xB8 DUP2 PUSH2 0x104 JUMP JUMPDEST SWAP3 SWAP2 POP POP JUMP JUMPDEST PUSH1 0x0 DUP1 PUSH1 0x40 DUP4 DUP6 SUB SLT ISZERO PUSH2 0xD1 JUMPI PUSH1 0x0 DUP1 REVERT JUMPDEST PUSH1 0x0 PUSH2 0xDF DUP6 DUP3 DUP7 ADD PUSH2 0xA9 JUMP JUMPDEST SWAP3 POP POP PUSH1 0x20 PUSH2 0xF0 DUP6 DUP3 DUP7 ADD PUSH2 0xA9 JUMP JUMPDEST SWAP2 POP POP SWAP3 POP SWAP3 SWAP1 POP JUMP JUMPDEST PUSH1 0x0 DUP2 SWAP1 POP SWAP2 SWAP1 POP JUMP JUMPDEST PUSH2 0x10D DUP2 PUSH2 0xFA JUMP JUMPDEST DUP2 EQ PUSH2 0x118 JUMPI PUSH1 0x0 DUP1 REVERT JUMPDEST POP JUMP JUMPDEST PUSH2 0xDED DUP1 PUSH2 0x12A PUSH1 0x0 CODECOPY PUSH1 0x0 RETURN INVALID PUSH1 0x80 PUSH1 0x40 MSTORE PUSH1 0x4 CALLDATASIZE LT PUSH2 0x9C JUMPI PUSH1 0x0 CALLDATALOAD PUSH1 0xE0 SHR DUP1 PUSH4 0x61A31E00 GT PUSH2 0x64 JUMPI DUP1 PUSH4 0x61A31E00 EQ PUSH2 0x174 JUMPI DUP1 PUSH4 0x9E6E2E55 EQ PUSH2 0x19D JUMPI DUP1 PUSH4 0xA6E1D016 EQ PUSH2 0x1C8 JUMPI DUP1 PUSH4 0xC7876EA4 EQ PUSH2 0x1DF JUMPI DUP1 PUSH4 0xCD905DFF EQ PUSH2 0x20A JUMPI DUP1 PUSH4 0xE2C41DBC EQ PUSH2 0x235 JUMPI PUSH2 0x9C JUMP JUMPDEST DUP1 PUSH4 0x155DD5EE EQ PUSH2 0xA1 JUMPI DUP1 PUSH4 0x27E235E3 EQ PUSH2 0xCA JUMPI DUP1 PUSH4 0x3403C2FC EQ PUSH2 0x107 JUMPI DUP1 PUSH4 0x3DEFDE13 EQ PUSH2 0x11E JUMPI DUP1 PUSH4 0x4B62811B EQ PUSH2 0x149 JUMPI JUMPDEST PUSH1 0x0 DUP1 REVERT JUMPDEST CALLVALUE DUP1 ISZERO PUSH2 0xAD JUMPI PUSH1 0x0 DUP1 REVERT JUMPDEST POP PUSH2 0xC8 PUSH1 0x4 DUP1 CALLDATASIZE SUB DUP2 ADD SWAP1 PUSH2 0xC3 SWAP2 SWAP1 PUSH2 0x8EA JUMP JUMPDEST PUSH2 0x23F JUMP JUMPDEST STOP JUMPDEST CALLVALUE DUP1 ISZERO PUSH2 0xD6 JUMPI PUSH1 0x0 DUP1 REVERT JUMPDEST POP PUSH2 0xF1 PUSH1 0x4 DUP1 CALLDATASIZE SUB DUP2 ADD SWAP1 PUSH2 0xEC SWAP2 SWAP1 PUSH2 0x8C1 JUMP JUMPDEST PUSH2 0x37A JUMP JUMPDEST PUSH1 0x40 MLOAD PUSH2 0xFE SWAP2 SWAP1 PUSH2 0xC02 JUMP JUMPDEST PUSH1 0x40 MLOAD DUP1 SWAP2 SUB SWAP1 RETURN JUMPDEST CALLVALUE DUP1 ISZERO PUSH2 0x113 JUMPI PUSH1 0x0 DUP1 REVERT JUMPDEST POP PUSH2 0x11C PUSH2 0x392 JUMP JUMPDEST STOP JUMPDEST CALLVALUE DUP1 ISZERO PUSH2 0x12A JUMPI PUSH1 0x0 DUP1 REVERT JUMPDEST POP PUSH2 0x133 PUSH2 0x468 JUMP JUMPDEST PUSH1 0x40 MLOAD PUSH2 0x140 SWAP2 SWAP1 PUSH2 0xC02 JUMP JUMPDEST PUSH1 0x40 MLOAD DUP1 SWAP2 SUB SWAP1 RETURN JUMPDEST CALLVALUE DUP1 ISZERO PUSH2 0x155 JUMPI PUSH1 0x0 DUP1 REVERT JUMPDEST POP PUSH2 0x15E PUSH2 0x46E JUMP JUMPDEST PUSH1 0x40 MLOAD PUSH2 0x16B SWAP2 SWAP1 PUSH2 0xB0C JUMP JUMPDEST PUSH1 0x40 MLOAD DUP1 SWAP2 SUB SWAP1 RETURN JUMPDEST CALLVALUE DUP1 ISZERO PUSH2 0x180 JUMPI PUSH1 0x0 DUP1 REVERT JUMPDEST POP PUSH2 0x19B PUSH1 0x4 DUP1 CALLDATASIZE SUB DUP2 ADD SWAP1 PUSH2 0x196 SWAP2 SWAP1 PUSH2 0x8EA JUMP JUMPDEST PUSH2 0x492 JUMP JUMPDEST STOP JUMPDEST CALLVALUE DUP1 ISZERO PUSH2 0x1A9 JUMPI PUSH1 0x0 DUP1 REVERT JUMPDEST POP PUSH2 0x1B2 PUSH2 0x73D JUMP JUMPDEST PUSH1 0x40 MLOAD PUSH2 0x1BF SWAP2 SWAP1 PUSH2 0xC02 JUMP JUMPDEST PUSH1 0x40 MLOAD DUP1 SWAP2 SUB SWAP1 RETURN JUMPDEST CALLVALUE DUP1 ISZERO PUSH2 0x1D4 JUMPI PUSH1 0x0 DUP1 REVERT JUMPDEST POP PUSH2 0x1DD PUSH2 0x743 JUMP JUMPDEST STOP JUMPDEST CALLVALUE DUP1 ISZERO PUSH2 0x1EB JUMPI PUSH1 0x0 DUP1 REVERT JUMPDEST POP PUSH2 0x1F4 PUSH2 0x7EE JUMP JUMPDEST PUSH1 0x40 MLOAD PUSH2 0x201 SWAP2 SWAP1 PUSH2 0xC02 JUMP JUMPDEST PUSH1 0x40 MLOAD DUP1 SWAP2 SUB SWAP1 RETURN JUMPDEST CALLVALUE DUP1 ISZERO PUSH2 0x216 JUMPI PUSH1 0x0 DUP1 REVERT JUMPDEST POP PUSH2 0x21F PUSH2 0x7F4 JUMP JUMPDEST PUSH1 0x40 MLOAD PUSH2 0x22C SWAP2 SWAP1 PUSH2 0xB27 JUMP JUMPDEST PUSH1 0x40 MLOAD DUP1 SWAP2 SUB SWAP1 RETURN JUMPDEST PUSH2 0x23D PUSH2 0x807 JUMP JUMPDEST STOP JUMPDEST PUSH1 0x0 DUP1 SLOAD SWAP1 PUSH2 0x100 EXP SWAP1 DIV PUSH20 0xFFFFFFFFFFFFFFFFFFFFFFFFFFFFFFFFFFFFFFFF AND PUSH20 0xFFFFFFFFFFFFFFFFFFFFFFFFFFFFFFFFFFFFFFFF AND CALLER PUSH20 0xFFFFFFFFFFFFFFFFFFFFFFFFFFFFFFFFFFFFFFFF AND EQ PUSH2 0x2CD JUMPI PUSH1 0x40 MLOAD PUSH32 0x8C379A000000000000000000000000000000000000000000000000000000000 DUP2 MSTORE PUSH1 0x4 ADD PUSH2 0x2C4 SWAP1 PUSH2 0xBE2 JUMP JUMPDEST PUSH1 0x40 MLOAD DUP1 SWAP2 SUB SWAP1 REVERT JUMPDEST SELFBALANCE DUP2 GT ISZERO PUSH2 0x310 JUMPI PUSH1 0x40 MLOAD PUSH32 0x8C379A000000000000000000000000000000000000000000000000000000000 DUP2 MSTORE PUSH1 0x4 ADD PUSH2 0x307 SWAP1 PUSH2 0xB62 JUMP JUMPDEST PUSH1 0x40 MLOAD DUP1 SWAP2 SUB SWAP1 REVERT JUMPDEST PUSH1 0x0 DUP1 SLOAD SWAP1 PUSH2 0x100 EXP SWAP1 DIV PUSH20 0xFFFFFFFFFFFFFFFFFFFFFFFFFFFFFFFFFFFFFFFF AND PUSH20 0xFFFFFFFFFFFFFFFFFFFFFFFFFFFFFFFFFFFFFFFF AND PUSH2 0x8FC DUP3 SWAP1 DUP2 ISZERO MUL SWAP1 PUSH1 0x40 MLOAD PUSH1 0x0 PUSH1 0x40 MLOAD DUP1 DUP4 SUB DUP2 DUP6 DUP9 DUP9 CALL SWAP4 POP POP POP POP ISZERO DUP1 ISZERO PUSH2 0x376 JUMPI RETURNDATASIZE PUSH1 0x0 DUP1 RETURNDATACOPY RETURNDATASIZE PUSH1 0x0 REVERT JUMPDEST POP POP JUMP JUMPDEST PUSH1 0x4 PUSH1 0x20 MSTORE DUP1 PUSH1 0x0 MSTORE PUSH1 0x40 PUSH1 0x0 KECCAK256 PUSH1 0x0 SWAP2 POP SWAP1 POP SLOAD DUP2 JUMP JUMPDEST PUSH1 0x0 DUP1 SLOAD SWAP1 PUSH2 0x100 EXP SWAP1 DIV PUSH20 0xFFFFFFFFFFFFFFFFFFFFFFFFFFFFFFFFFFFFFFFF AND PUSH20 0xFFFFFFFFFFFFFFFFFFFFFFFFFFFFFFFFFFFFFFFF AND CALLER PUSH20 0xFFFFFFFFFFFFFFFFFFFFFFFFFFFFFFFFFFFFFFFF AND EQ PUSH2 0x420 JUMPI PUSH1 0x40 MLOAD PUSH32 0x8C379A000000000000000000000000000000000000000000000000000000000 DUP2 MSTORE PUSH1 0x4 ADD PUSH2 0x417 SWAP1 PUSH2 0xBE2 JUMP JUMPDEST PUSH1 0x40 MLOAD DUP1 SWAP2 SUB SWAP1 REVERT JUMPDEST PUSH1 0x0 DUP1 PUSH1 0x14 PUSH2 0x100 EXP DUP2 SLOAD DUP2 PUSH1 0xFF MUL NOT AND SWAP1 DUP4 ISZERO ISZERO MUL OR SWAP1 SSTORE POP PUSH32 0xE8849021A66751D01FBA6E8286939266CF82B3AFE550AB48D28E2119E51AF45A PUSH1 0x40 MLOAD PUSH1 0x40 MLOAD DUP1 SWAP2 SUB SWAP1 LOG1 JUMP JUMPDEST PUSH1 0x2 SLOAD DUP2 JUMP JUMPDEST PUSH1 0x0 DUP1 SLOAD SWAP1 PUSH2 0x100 EXP SWAP1 DIV PUSH20 0xFFFFFFFFFFFFFFFFFFFFFFFFFFFFFFFFFFFFFFFF AND DUP2 JUMP JUMPDEST PUSH1 0x0 PUSH1 0x14 SWAP1 SLOAD SWAP1 PUSH2 0x100 EXP SWAP1 DIV PUSH1 0xFF AND PUSH2 0x4E1 JUMPI PUSH1 0x40 MLOAD PUSH32 0x8C379A000000000000000000000000000000000000000000000000000000000 DUP2 MSTORE PUSH1 0x4 ADD PUSH2 0x4D8 SWAP1 PUSH2 0xBA2 JUMP JUMPDEST PUSH1 0x40 MLOAD DUP1 SWAP2 SUB SWAP1 REVERT JUMPDEST PUSH1 0x0 DUP2 GT PUSH2 0x524 JUMPI PUSH1 0x40 MLOAD PUSH32 0x8C379A000000000000000000000000000000000000000000000000000000000 DUP2 MSTORE PUSH1 0x4 ADD PUSH2 0x51B SWAP1 PUSH2 0xB82 JUMP JUMPDEST PUSH1 0x40 MLOAD DUP1 SWAP2 SUB SWAP1 REVERT JUMPDEST PUSH1 0x3 SLOAD DUP2 GT ISZERO PUSH2 0x569 JUMPI PUSH1 0x40 MLOAD PUSH32 0x8C379A000000000000000000000000000000000000000000000000000000000 DUP2 MSTORE PUSH1 0x4 ADD PUSH2 0x560 SWAP1 PUSH2 0xBC2 JUMP JUMPDEST PUSH1 0x40 MLOAD DUP1 SWAP2 SUB SWAP1 REVERT JUMPDEST PUSH1 0x0 PUSH1 0x1 SLOAD DUP3 PUSH2 0x579 SWAP2 SWAP1 PUSH2 0xC84 JUMP JUMPDEST SWAP1 POP DUP1 PUSH1 0x4 PUSH1 0x0 CALLER PUSH20 0xFFFFFFFFFFFFFFFFFFFFFFFFFFFFFFFFFFFFFFFF AND PUSH20 0xFFFFFFFFFFFFFFFFFFFFFFFFFFFFFFFFFFFFFFFF AND DUP2 MSTORE PUSH1 0x20 ADD SWAP1 DUP2 MSTORE PUSH1 0x20 ADD PUSH1 0x0 KECCAK256 PUSH1 0x0 DUP3 DUP3 SLOAD PUSH2 0x5CA SWAP2 SWAP1 PUSH2 0xC2E JUMP JUMPDEST SWAP3 POP POP DUP2 SWAP1 SSTORE POP DUP2 PUSH1 0x3 PUSH1 0x0 DUP3 DUP3 SLOAD PUSH2 0x5E3 SWAP2 SWAP1 PUSH2 0xCDE JUMP JUMPDEST SWAP3 POP POP DUP2 SWAP1 SSTORE POP CALLER PUSH20 0xFFFFFFFFFFFFFFFFFFFFFFFFFFFFFFFFFFFFFFFF AND PUSH32 0x5A7F1D6F90B496F8387509E2E1B88FD893ED21F5B2640BA045A4BC2A19F40896 DUP4 PUSH1 0x40 MLOAD PUSH2 0x630 SWAP2 SWAP1 PUSH2 0xC02 JUMP JUMPDEST PUSH1 0x40 MLOAD DUP1 SWAP2 SUB SWAP1 LOG2 PUSH32 0x51E72BC806394924E1651A0B30A749E331AA297D2BC6A7B1FDA14A5B016528CE PUSH1 0x3 SLOAD PUSH1 0x40 MLOAD PUSH2 0x669 SWAP2 SWAP1 PUSH2 0xC02 JUMP JUMPDEST PUSH1 0x40 MLOAD DUP1 SWAP2 SUB SWAP1 LOG1 PUSH1 0x0 CALLER PUSH20 0xFFFFFFFFFFFFFFFFFFFFFFFFFFFFFFFFFFFFFFFF AND PUSH2 0x8FC DUP4 SWAP1 DUP2 ISZERO MUL SWAP1 PUSH1 0x40 MLOAD PUSH1 0x0 PUSH1 0x40 MLOAD DUP1 DUP4 SUB DUP2 DUP6 DUP9 DUP9 CALL SWAP4 POP POP POP POP SWAP1 POP DUP1 PUSH2 0x6EA JUMPI PUSH1 0x40 MLOAD PUSH32 0x8C379A000000000000000000000000000000000000000000000000000000000 DUP2 MSTORE PUSH1 0x4 ADD PUSH2 0x6E1 SWAP1 PUSH2 0xB42 JUMP JUMPDEST PUSH1 0x40 MLOAD DUP1 SWAP2 SUB SWAP1 REVERT JUMPDEST CALLER PUSH20 0xFFFFFFFFFFFFFFFFFFFFFFFFFFFFFFFFFFFFFFFF AND PUSH32 0x2D0BEDA258D8E23BB4D7C407B3BD723D9ABEAB28C7C0EE49B5842BF84E5EE6FC DUP4 PUSH1 0x40 MLOAD PUSH2 0x730 SWAP2 SWAP1 PUSH2 0xC02 JUMP JUMPDEST PUSH1 0x40 MLOAD DUP1 SWAP2 SUB SWAP1 LOG2 POP POP POP JUMP JUMPDEST PUSH1 0x3 SLOAD DUP2 JUMP JUMPDEST PUSH1 0x0 DUP1 SLOAD SWAP1 PUSH2 0x100 EXP SWAP1 DIV PUSH20 0xFFFFFFFFFFFFFFFFFFFFFFFFFFFFFFFFFFFFFFFF AND PUSH20 0xFFFFFFFFFFFFFFFFFFFFFFFFFFFFFFFFFFFFFFFF AND CALLER PUSH20 0xFFFFFFFFFFFFFFFFFFFFFFFFFFFFFFFFFFFFFFFF AND EQ PUSH2 0x7D1 JUMPI PUSH1 0x40 MLOAD PUSH32 0x8C379A000000000000000000000000000000000000000000000000000000000 DUP2 MSTORE PUSH1 0x4 ADD PUSH2 0x7C8 SWAP1 PUSH2 0xBE2 JUMP JUMPDEST PUSH1 0x40 MLOAD DUP1 SWAP2 SUB SWAP1 REVERT JUMPDEST PUSH1 0x1 PUSH1 0x0 PUSH1 0x14 PUSH2 0x100 EXP DUP2 SLOAD DUP2 PUSH1 0xFF MUL NOT AND SWAP1 DUP4 ISZERO ISZERO MUL OR SWAP1 SSTORE POP JUMP JUMPDEST PUSH1 0x1 SLOAD DUP2 JUMP JUMPDEST PUSH1 0x0 PUSH1 0x14 SWAP1 SLOAD SWAP1 PUSH2 0x100 EXP SWAP1 DIV PUSH1 0xFF AND DUP2 JUMP JUMPDEST PUSH1 0x0 DUP1 SLOAD SWAP1 PUSH2 0x100 EXP SWAP1 DIV PUSH20 0xFFFFFFFFFFFFFFFFFFFFFFFFFFFFFFFFFFFFFFFF AND PUSH20 0xFFFFFFFFFFFFFFFFFFFFFFFFFFFFFFFFFFFFFFFF AND CALLER PUSH20 0xFFFFFFFFFFFFFFFFFFFFFFFFFFFFFFFFFFFFFFFF AND EQ PUSH2 0x895 JUMPI PUSH1 0x40 MLOAD PUSH32 0x8C379A000000000000000000000000000000000000000000000000000000000 DUP2 MSTORE PUSH1 0x4 ADD PUSH2 0x88C SWAP1 PUSH2 0xBE2 JUMP JUMPDEST PUSH1 0x40 MLOAD DUP1 SWAP2 SUB SWAP1 REVERT JUMPDEST JUMP JUMPDEST PUSH1 0x0 DUP2 CALLDATALOAD SWAP1 POP PUSH2 0x8A6 DUP2 PUSH2 0xD89 JUMP JUMPDEST SWAP3 SWAP2 POP POP JUMP JUMPDEST PUSH1 0x0 DUP2 CALLDATALOAD SWAP1 POP PUSH2 0x8BB DUP2 PUSH2 0xDA0 JUMP JUMPDEST SWAP3 SWAP2 POP POP JUMP JUMPDEST PUSH1 0x0 PUSH1 0x20 DUP3 DUP5 SUB SLT ISZERO PUSH2 0x8D3 JUMPI PUSH1 0x0 DUP1 REVERT JUMPDEST PUSH1 0x0 PUSH2 0x8E1 DUP5 DUP3 DUP6 ADD PUSH2 0x897 JUMP JUMPDEST SWAP2 POP POP SWAP3 SWAP2 POP POP JUMP JUMPDEST PUSH1 0x0 PUSH1 0x20 DUP3 DUP5 SUB SLT ISZERO PUSH2 0x8FC JUMPI PUSH1 0x0 DUP1 REVERT JUMPDEST PUSH1 0x0 PUSH2 0x90A DUP5 DUP3 DUP6 ADD PUSH2 0x8AC JUMP JUMPDEST SWAP2 POP POP SWAP3 SWAP2 POP POP JUMP JUMPDEST PUSH2 0x91C DUP2 PUSH2 0xD12 JUMP JUMPDEST DUP3 MSTORE POP POP JUMP JUMPDEST PUSH2 0x92B DUP2 PUSH2 0xD24 JUMP JUMPDEST DUP3 MSTORE POP POP JUMP JUMPDEST PUSH1 0x0 PUSH2 0x93E PUSH1 0x1A DUP4 PUSH2 0xC1D JUMP JUMPDEST SWAP2 POP PUSH32 0x4661696C656420746F207472616E73666572207061796D656E74000000000000 PUSH1 0x0 DUP4 ADD MSTORE PUSH1 0x20 DUP3 ADD SWAP1 POP SWAP2 SWAP1 POP JUMP JUMPDEST PUSH1 0x0 PUSH2 0x97E PUSH1 0x20 DUP4 PUSH2 0xC1D JUMP JUMPDEST SWAP2 POP PUSH32 0x496E73756666696369656E742062616C616E636520696E20636F6E7472616374 PUSH1 0x0 DUP4 ADD MSTORE PUSH1 0x20 DUP3 ADD SWAP1 POP SWAP2 SWAP1 POP JUMP JUMPDEST PUSH1 0x0 PUSH2 0x9BE PUSH1 0x27 DUP4 PUSH2 0xC1D JUMP JUMPDEST SWAP2 POP PUSH32 0x456E6572677920616D6F756E74206D7573742062652067726561746572207468 PUSH1 0x0 DUP4 ADD MSTORE PUSH32 0x616E207A65726F00000000000000000000000000000000000000000000000000 PUSH1 0x20 DUP4 ADD MSTORE PUSH1 0x40 DUP3 ADD SWAP1 POP SWAP2 SWAP1 POP JUMP JUMPDEST PUSH1 0x0 PUSH2 0xA24 PUSH1 0x1B DUP4 PUSH2 0xC1D JUMP JUMPDEST SWAP2 POP PUSH32 0x436F6E7472616374206973206E6F74206F7065726174696F6E616C0000000000 PUSH1 0x0 DUP4 ADD MSTORE PUSH1 0x20 DUP3 ADD SWAP1 POP SWAP2 SWAP1 POP JUMP JUMPDEST PUSH1 0x0 PUSH2 0xA64 PUSH1 0x21 DUP4 PUSH2 0xC1D JUMP JUMPDEST SWAP2 POP PUSH32 0x456E6572677920616D6F756E74206578636565647320677269642064656D616E PUSH1 0x0 DUP4 ADD MSTORE PUSH32 0x6400000000000000000000000000000000000000000000000000000000000000 PUSH1 0x20 DUP4 ADD MSTORE PUSH1 0x40 DUP3 ADD SWAP1 POP SWAP2 SWAP1 POP JUMP JUMPDEST PUSH1 0x0 PUSH2 0xACA PUSH1 0x1F DUP4 PUSH2 0xC1D JUMP JUMPDEST SWAP2 POP PUSH32 0x43616C6C6572206973206E6F74207468652067726964206F70657261746F7200 PUSH1 0x0 DUP4 ADD MSTORE PUSH1 0x20 DUP3 ADD SWAP1 POP SWAP2 SWAP1 POP JUMP JUMPDEST PUSH2 0xB06 DUP2 PUSH2 0xD50 JUMP JUMPDEST DUP3 MSTORE POP POP JUMP JUMPDEST PUSH1 0x0 PUSH1 0x20 DUP3 ADD SWAP1 POP PUSH2 0xB21 PUSH1 0x0 DUP4 ADD DUP5 PUSH2 0x913 JUMP JUMPDEST SWAP3 SWAP2 POP POP JUMP JUMPDEST PUSH1 0x0 PUSH1 0x20 DUP3 ADD SWAP1 POP PUSH2 0xB3C PUSH1 0x0 DUP4 ADD DUP5 PUSH2 0x922 JUMP JUMPDEST SWAP3 SWAP2 POP POP JUMP JUMPDEST PUSH1 0x0 PUSH1 0x20 DUP3 ADD SWAP1 POP DUP2 DUP2 SUB PUSH1 0x0 DUP4 ADD MSTORE PUSH2 0xB5B DUP2 PUSH2 0x931 JUMP JUMPDEST SWAP1 POP SWAP2 SWAP1 POP JUMP JUMPDEST PUSH1 0x0 PUSH1 0x20 DUP3 ADD SWAP1 POP DUP2 DUP2 SUB PUSH1 0x0 DUP4 ADD MSTORE PUSH2 0xB7B DUP2 PUSH2 0x971 JUMP JUMPDEST SWAP1 POP SWAP2 SWAP1 POP JUMP JUMPDEST PUSH1 0x0 PUSH1 0x20 DUP3 ADD SWAP1 POP DUP2 DUP2 SUB PUSH1 0x0 DUP4 ADD MSTORE PUSH2 0xB9B DUP2 PUSH2 0x9B1 JUMP JUMPDEST SWAP1 POP SWAP2 SWAP1 POP JUMP JUMPDEST PUSH1 0x0 PUSH1 0x20 DUP3 ADD SWAP1 POP DUP2 DUP2 SUB PUSH1 0x0 DUP4 ADD MSTORE PUSH2 0xBBB DUP2 PUSH2 0xA17 JUMP JUMPDEST SWAP1 POP SWAP2 SWAP1 POP JUMP JUMPDEST PUSH1 0x0 PUSH1 0x20 DUP3 ADD SWAP1 POP DUP2 DUP2 SUB PUSH1 0x0 DUP4 ADD MSTORE PUSH2 0xBDB DUP2 PUSH2 0xA57 JUMP JUMPDEST SWAP1 POP SWAP2 SWAP1 POP JUMP JUMPDEST PUSH1 0x0 PUSH1 0x20 DUP3 ADD SWAP1 POP DUP2 DUP2 SUB PUSH1 0x0 DUP4 ADD MSTORE PUSH2 0xBFB DUP2 PUSH2 0xABD JUMP JUMPDEST SWAP1 POP SWAP2 SWAP1 POP JUMP JUMPDEST PUSH1 0x0 PUSH1 0x20 DUP3 ADD SWAP1 POP PUSH2 0xC17 PUSH1 0x0 DUP4 ADD DUP5 PUSH2 0xAFD JUMP JUMPDEST SWAP3 SWAP2 POP POP JUMP JUMPDEST PUSH1 0x0 DUP3 DUP3 MSTORE PUSH1 0x20 DUP3 ADD SWAP1 POP SWAP3 SWAP2 POP POP JUMP JUMPDEST PUSH1 0x0 PUSH2 0xC39 DUP3 PUSH2 0xD50 JUMP JUMPDEST SWAP2 POP PUSH2 0xC44 DUP4 PUSH2 0xD50 JUMP JUMPDEST SWAP3 POP DUP3 PUSH32 0xFFFFFFFFFFFFFFFFFFFFFFFFFFFFFFFFFFFFFFFFFFFFFFFFFFFFFFFFFFFFFFFF SUB DUP3 GT ISZERO PUSH2 0xC79 JUMPI PUSH2 0xC78 PUSH2 0xD5A JUMP JUMPDEST JUMPDEST DUP3 DUP3 ADD SWAP1 POP SWAP3 SWAP2 POP POP JUMP JUMPDEST PUSH1 0x0 PUSH2 0xC8F DUP3 PUSH2 0xD50 JUMP JUMPDEST SWAP2 POP PUSH2 0xC9A DUP4 PUSH2 0xD50 JUMP JUMPDEST SWAP3 POP DUP2 PUSH32 0xFFFFFFFFFFFFFFFFFFFFFFFFFFFFFFFFFFFFFFFFFFFFFFFFFFFFFFFFFFFFFFFF DIV DUP4 GT DUP3 ISZERO ISZERO AND ISZERO PUSH2 0xCD3 JUMPI PUSH2 0xCD2 PUSH2 0xD5A JUMP JUMPDEST JUMPDEST DUP3 DUP3 MUL SWAP1 POP SWAP3 SWAP2 POP POP JUMP JUMPDEST PUSH1 0x0 PUSH2 0xCE9 DUP3 PUSH2 0xD50 JUMP JUMPDEST SWAP2 POP PUSH2 0xCF4 DUP4 PUSH2 0xD50 JUMP JUMPDEST SWAP3 POP DUP3 DUP3 LT ISZERO PUSH2 0xD07 JUMPI PUSH2 0xD06 PUSH2 0xD5A JUMP JUMPDEST JUMPDEST DUP3 DUP3 SUB SWAP1 POP SWAP3 SWAP2 POP POP JUMP JUMPDEST PUSH1 0x0 PUSH2 0xD1D DUP3 PUSH2 0xD30 JUMP JUMPDEST SWAP1 POP SWAP2 SWAP1 POP JUMP JUMPDEST PUSH1 0x0 DUP2 ISZERO ISZERO SWAP1 POP SWAP2 SWAP1 POP JUMP JUMPDEST PUSH1 0x0 PUSH20 0xFFFFFFFFFFFFFFFFFFFFFFFFFFFFFFFFFFFFFFFF DUP3 AND SWAP1 POP SWAP2 SWAP1 POP JUMP JUMPDEST PUSH1 0x0 DUP2 SWAP1 POP SWAP2 SWAP1 POP JUMP JUMPDEST PUSH32 0x4E487B7100000000000000000000000000000000000000000000000000000000 PUSH1 0x0 MSTORE PUSH1 0x11 PUSH1 0x4 MSTORE PUSH1 0x24 PUSH1 0x0 REVERT JUMPDEST PUSH2 0xD92 DUP2 PUSH2 0xD12 JUMP JUMPDEST DUP2 EQ PUSH2 0xD9D JUMPI PUSH1 0x0 DUP1 REVERT JUMPDEST POP JUMP JUMPDEST PUSH2 0xDA9 DUP2 PUSH2 0xD50 JUMP JUMPDEST DUP2 EQ PUSH2 0xDB4 JUMPI PUSH1 0x0 DUP1 REVERT JUMPDEST POP JUMP INVALID LOG2 PUSH5 0x6970667358 0x22 SLT KECCAK256 0x5E SLT 0xAF PUSH19 0xBA6E4561BFED9DB2748E5F3501059F5724111F 0xE5 PUSH2 0xB845 0xBA 0x2F 0x1E PUSH6 0x1164736F6C63 NUMBER STOP ADDMOD STOP STOP CALLER "
				},
				"gasEstimates": {
					"creation": {
						"codeDepositCost": "713000",
						"executionCost": "infinite",
						"totalCost": "infinite"
					},
					"external": {
						"balances(address)": "1537",
						"basePrice()": "1195",
						"currentDemand()": "1151",
						"depositFunds()": "1357",
						"emergencyShutdown()": "22750",
						"gridOperator()": "1300",
						"initiateTransfer(uint256)": "infinite",
						"isOperational()": "1309",
						"maxDemand()": "1196",
						"resumeOperations()": "21972",
						"withdrawFunds(uint256)": "infinite"
					}
				},
				"methodIdentifiers": {
					"balances(address)": "27e235e3",
					"basePrice()": "c7876ea4",
					"currentDemand()": "9e6e2e55",
					"depositFunds()": "e2c41dbc",
					"emergencyShutdown()": "3403c2fc",
					"gridOperator()": "4b62811b",
					"initiateTransfer(uint256)": "61a31e00",
					"isOperational()": "cd905dff",
					"maxDemand()": "3defde13",
					"resumeOperations()": "a6e1d016",
					"withdrawFunds(uint256)": "155dd5ee"
				}
			},
			"storageLayout": {
				"storage": [
					{
						"astId": 3,
						"contract": "contracts/V2GLoadManagement.sol:V2GLoadManagement",
						"label": "gridOperator",
						"offset": 0,
						"slot": "0",
						"type": "t_address"
					},
					{
						"astId": 5,
						"contract": "contracts/V2GLoadManagement.sol:V2GLoadManagement",
						"label": "isOperational",
						"offset": 20,
						"slot": "0",
						"type": "t_bool"
					},
					{
						"astId": 7,
						"contract": "contracts/V2GLoadManagement.sol:V2GLoadManagement",
						"label": "basePrice",
						"offset": 0,
						"slot": "1",
						"type": "t_uint256"
					},
					{
						"astId": 9,
						"contract": "contracts/V2GLoadManagement.sol:V2GLoadManagement",
						"label": "maxDemand",
						"offset": 0,
						"slot": "2",
						"type": "t_uint256"
					},
					{
						"astId": 11,
						"contract": "contracts/V2GLoadManagement.sol:V2GLoadManagement",
						"label": "currentDemand",
						"offset": 0,
						"slot": "3",
						"type": "t_uint256"
					},
					{
						"astId": 15,
						"contract": "contracts/V2GLoadManagement.sol:V2GLoadManagement",
						"label": "balances",
						"offset": 0,
						"slot": "4",
						"type": "t_mapping(t_address,t_uint256)"
					}
				],
				"types": {
					"t_address": {
						"encoding": "inplace",
						"label": "address",
						"numberOfBytes": "20"
					},
					"t_bool": {
						"encoding": "inplace",
						"label": "bool",
						"numberOfBytes": "1"
					},
					"t_mapping(t_address,t_uint256)": {
						"encoding": "mapping",
						"key": "t_address",
						"label": "mapping(address => uint256)",
						"numberOfBytes": "32",
						"value": "t_uint256"
					},
					"t_uint256": {
						"encoding": "inplace",
						"label": "uint256",
						"numberOfBytes": "32"
					}
				}
			},
			"userdoc": {
				"kind": "user",
				"methods": {},
				"version": 1
			}
		}
	}
}